{
  "_format": "hh-sol-artifact-1",
  "contractName": "PatientConsentManager",
  "sourceName": "contracts/PatientConsentManager.sol",
  "abi": [
    {
      "inputs": [],
      "stateMutability": "nonpayable",
      "type": "constructor"
    },
    {
      "inputs": [],
      "name": "CannotGrantConsentToSelf",
      "type": "error"
    },
    {
      "inputs": [],
      "name": "CannotRequestAccessFromSelf",
      "type": "error"
    },
    {
      "inputs": [],
      "name": "ConsentAlreadyInactive",
      "type": "error"
    },
    {
      "inputs": [],
      "name": "ConsentNotFound",
      "type": "error"
    },
    {
      "inputs": [],
      "name": "EmptyBatch",
      "type": "error"
    },
    {
      "inputs": [],
      "name": "EmptyString",
      "type": "error"
    },
    {
      "inputs": [],
      "name": "ExpirationInPast",
      "type": "error"
    },
    {
      "inputs": [],
      "name": "InvalidAddress",
      "type": "error"
    },
    {
      "inputs": [],
      "name": "ReentrancyGuardReentrantCall",
      "type": "error"
    },
    {
      "inputs": [],
      "name": "RequestAlreadyProcessed",
      "type": "error"
    },
    {
      "inputs": [],
      "name": "RequestNotFound",
      "type": "error"
    },
    {
      "inputs": [],
      "name": "StringTooLong",
      "type": "error"
    },
    {
      "inputs": [],
      "name": "UnauthorizedResponse",
      "type": "error"
    },
    {
      "inputs": [],
      "name": "UnauthorizedRevocation",
      "type": "error"
    },
    {
      "anonymous": false,
      "inputs": [
        {
          "indexed": true,
          "internalType": "uint256",
          "name": "requestId",
          "type": "uint256"
        },
        {
          "indexed": true,
          "internalType": "address",
          "name": "patient",
          "type": "address"
        },
        {
          "indexed": false,
          "internalType": "uint128",
          "name": "timestamp",
          "type": "uint128"
        }
      ],
      "name": "AccessApproved",
      "type": "event"
    },
    {
      "anonymous": false,
      "inputs": [
        {
          "indexed": true,
          "internalType": "uint256",
          "name": "requestId",
          "type": "uint256"
        },
        {
          "indexed": true,
          "internalType": "address",
          "name": "patient",
          "type": "address"
        },
        {
          "indexed": false,
          "internalType": "uint128",
          "name": "timestamp",
          "type": "uint128"
        }
      ],
      "name": "AccessDenied",
      "type": "event"
    },
    {
      "anonymous": false,
      "inputs": [
        {
          "indexed": true,
          "internalType": "uint256",
          "name": "requestId",
          "type": "uint256"
        },
        {
          "indexed": true,
          "internalType": "address",
          "name": "requester",
          "type": "address"
        },
        {
          "indexed": true,
          "internalType": "address",
          "name": "patient",
          "type": "address"
        },
        {
          "indexed": false,
          "internalType": "string",
          "name": "dataType",
          "type": "string"
        },
        {
          "indexed": false,
          "internalType": "string",
          "name": "purpose",
          "type": "string"
        },
        {
          "indexed": false,
          "internalType": "uint128",
          "name": "expirationTime",
          "type": "uint128"
        },
        {
          "indexed": false,
          "internalType": "uint128",
          "name": "timestamp",
          "type": "uint128"
        }
      ],
      "name": "AccessRequested",
      "type": "event"
    },
    {
      "anonymous": false,
      "inputs": [
        {
          "indexed": true,
          "internalType": "address",
          "name": "patient",
          "type": "address"
        },
        {
          "indexed": false,
          "internalType": "uint256[]",
          "name": "consentIds",
          "type": "uint256[]"
        },
        {
          "indexed": false,
          "internalType": "uint128",
          "name": "timestamp",
          "type": "uint128"
        }
      ],
      "name": "ConsentBatchGranted",
      "type": "event"
    },
    {
      "anonymous": false,
      "inputs": [
        {
          "indexed": true,
          "internalType": "uint256",
          "name": "consentId",
          "type": "uint256"
        },
        {
          "indexed": true,
          "internalType": "address",
          "name": "patient",
          "type": "address"
        },
        {
          "indexed": false,
          "internalType": "uint128",
          "name": "timestamp",
          "type": "uint128"
        }
      ],
      "name": "ConsentExpired",
      "type": "event"
    },
    {
      "anonymous": false,
      "inputs": [
        {
          "indexed": true,
          "internalType": "uint256",
          "name": "consentId",
          "type": "uint256"
        },
        {
          "indexed": true,
          "internalType": "address",
          "name": "patient",
          "type": "address"
        },
        {
          "indexed": true,
          "internalType": "address",
          "name": "provider",
          "type": "address"
        },
        {
          "indexed": false,
          "internalType": "string",
          "name": "dataType",
          "type": "string"
        },
        {
          "indexed": false,
          "internalType": "uint128",
          "name": "expirationTime",
          "type": "uint128"
        },
        {
          "indexed": false,
          "internalType": "string",
          "name": "purpose",
          "type": "string"
        },
        {
          "indexed": false,
          "internalType": "uint128",
          "name": "timestamp",
          "type": "uint128"
        }
      ],
      "name": "ConsentGranted",
      "type": "event"
    },
    {
      "anonymous": false,
      "inputs": [
        {
          "indexed": true,
          "internalType": "uint256",
          "name": "consentId",
          "type": "uint256"
        },
        {
          "indexed": true,
          "internalType": "address",
          "name": "patient",
          "type": "address"
        },
        {
          "indexed": false,
          "internalType": "uint128",
          "name": "timestamp",
          "type": "uint128"
        }
      ],
      "name": "ConsentRevoked",
      "type": "event"
    },
    {
      "inputs": [
        {
          "internalType": "uint256",
          "name": "",
          "type": "uint256"
        }
      ],
      "name": "accessRequests",
      "outputs": [
        {
          "internalType": "address",
          "name": "requester",
          "type": "address"
        },
        {
          "internalType": "address",
          "name": "patientAddress",
          "type": "address"
        },
        {
          "internalType": "uint128",
          "name": "timestamp",
          "type": "uint128"
        },
        {
          "internalType": "uint128",
          "name": "expirationTime",
          "type": "uint128"
        },
        {
          "internalType": "bool",
          "name": "isProcessed",
          "type": "bool"
        },
        {
          "internalType": "enum PatientConsentManager.RequestStatus",
          "name": "status",
          "type": "uint8"
        },
        {
          "internalType": "string",
          "name": "dataType",
          "type": "string"
        },
        {
          "internalType": "string",
          "name": "purpose",
          "type": "string"
        }
      ],
      "stateMutability": "view",
      "type": "function"
    },
    {
      "inputs": [
        {
          "internalType": "address",
          "name": "patient",
          "type": "address"
        }
      ],
      "name": "checkAndExpireConsents",
      "outputs": [
        {
          "internalType": "uint256",
          "name": "expiredCount",
          "type": "uint256"
        }
      ],
      "stateMutability": "nonpayable",
      "type": "function"
    },
    {
      "inputs": [],
      "name": "consentCounter",
      "outputs": [
        {
          "internalType": "uint256",
          "name": "",
          "type": "uint256"
        }
      ],
      "stateMutability": "view",
      "type": "function"
    },
    {
      "inputs": [
        {
          "internalType": "uint256",
          "name": "",
          "type": "uint256"
        }
      ],
      "name": "consentRecords",
      "outputs": [
        {
          "internalType": "address",
          "name": "patientAddress",
          "type": "address"
        },
        {
          "internalType": "address",
          "name": "providerAddress",
          "type": "address"
        },
        {
          "internalType": "uint128",
          "name": "timestamp",
          "type": "uint128"
        },
        {
          "internalType": "uint128",
          "name": "expirationTime",
          "type": "uint128"
        },
        {
          "internalType": "bool",
          "name": "isActive",
          "type": "bool"
        },
        {
          "internalType": "string",
          "name": "dataType",
          "type": "string"
        },
        {
          "internalType": "string",
          "name": "purpose",
          "type": "string"
        }
      ],
      "stateMutability": "view",
      "type": "function"
    },
    {
      "inputs": [
        {
          "internalType": "uint256",
          "name": "requestId",
          "type": "uint256"
        }
      ],
      "name": "getAccessRequest",
      "outputs": [
        {
          "components": [
            {
              "internalType": "address",
              "name": "requester",
              "type": "address"
            },
            {
              "internalType": "address",
              "name": "patientAddress",
              "type": "address"
            },
            {
              "internalType": "uint128",
              "name": "timestamp",
              "type": "uint128"
            },
            {
              "internalType": "uint128",
              "name": "expirationTime",
              "type": "uint128"
            },
            {
              "internalType": "bool",
              "name": "isProcessed",
              "type": "bool"
            },
            {
              "internalType": "enum PatientConsentManager.RequestStatus",
              "name": "status",
              "type": "uint8"
            },
            {
              "internalType": "string",
              "name": "dataType",
              "type": "string"
            },
            {
              "internalType": "string",
              "name": "purpose",
              "type": "string"
            }
          ],
          "internalType": "struct PatientConsentManager.AccessRequest",
          "name": "",
          "type": "tuple"
        }
      ],
      "stateMutability": "view",
      "type": "function"
    },
    {
      "inputs": [
        {
          "internalType": "uint256",
          "name": "consentId",
          "type": "uint256"
        }
      ],
      "name": "getConsentRecord",
      "outputs": [
        {
          "components": [
            {
              "internalType": "address",
              "name": "patientAddress",
              "type": "address"
            },
            {
              "internalType": "address",
              "name": "providerAddress",
              "type": "address"
            },
            {
              "internalType": "uint128",
              "name": "timestamp",
              "type": "uint128"
            },
            {
              "internalType": "uint128",
              "name": "expirationTime",
              "type": "uint128"
            },
            {
              "internalType": "bool",
              "name": "isActive",
              "type": "bool"
            },
            {
              "internalType": "string",
              "name": "dataType",
              "type": "string"
            },
            {
              "internalType": "string",
              "name": "purpose",
              "type": "string"
            }
          ],
          "internalType": "struct PatientConsentManager.ConsentRecord",
          "name": "",
          "type": "tuple"
        }
      ],
      "stateMutability": "view",
      "type": "function"
    },
    {
      "inputs": [
        {
          "internalType": "address",
          "name": "patient",
          "type": "address"
        }
      ],
      "name": "getExpiredConsents",
      "outputs": [
        {
          "internalType": "uint256[]",
          "name": "expiredIds",
          "type": "uint256[]"
        }
      ],
      "stateMutability": "view",
      "type": "function"
    },
    {
      "inputs": [
        {
          "internalType": "address",
          "name": "patient",
          "type": "address"
        }
      ],
      "name": "getPatientConsents",
      "outputs": [
        {
          "internalType": "uint256[]",
          "name": "",
          "type": "uint256[]"
        }
      ],
      "stateMutability": "view",
      "type": "function"
    },
    {
      "inputs": [
        {
          "internalType": "address",
          "name": "patient",
          "type": "address"
        }
      ],
      "name": "getPatientRequests",
      "outputs": [
        {
          "internalType": "uint256[]",
          "name": "",
          "type": "uint256[]"
        }
      ],
      "stateMutability": "view",
      "type": "function"
    },
    {
      "inputs": [
        {
          "internalType": "address",
          "name": "provider",
          "type": "address"
        },
        {
          "internalType": "string",
          "name": "dataType",
          "type": "string"
        },
        {
          "internalType": "uint256",
          "name": "expirationTime",
          "type": "uint256"
        },
        {
          "internalType": "string",
          "name": "purpose",
          "type": "string"
        }
      ],
      "name": "grantConsent",
      "outputs": [
        {
          "internalType": "uint256",
          "name": "consentId",
          "type": "uint256"
        }
      ],
      "stateMutability": "nonpayable",
      "type": "function"
    },
    {
      "inputs": [
        {
          "internalType": "address[]",
          "name": "providers",
          "type": "address[]"
        },
        {
          "internalType": "string[]",
          "name": "dataTypes",
          "type": "string[]"
        },
        {
          "internalType": "uint256[]",
          "name": "expirationTimes",
          "type": "uint256[]"
        },
        {
          "internalType": "string[]",
          "name": "purposes",
          "type": "string[]"
        }
      ],
      "name": "grantConsentBatch",
      "outputs": [
        {
          "internalType": "uint256[]",
          "name": "consentIds",
          "type": "uint256[]"
        }
      ],
      "stateMutability": "nonpayable",
      "type": "function"
    },
    {
      "inputs": [
        {
          "internalType": "address",
          "name": "patient",
          "type": "address"
        },
        {
          "internalType": "address",
          "name": "provider",
          "type": "address"
        },
        {
          "internalType": "string",
          "name": "dataType",
          "type": "string"
        }
      ],
      "name": "hasActiveConsent",
      "outputs": [
        {
          "internalType": "bool",
          "name": "hasConsent",
          "type": "bool"
        },
        {
          "internalType": "uint256",
          "name": "consentId",
          "type": "uint256"
        }
      ],
      "stateMutability": "view",
      "type": "function"
    },
    {
      "inputs": [
        {
          "internalType": "uint256",
          "name": "consentId",
          "type": "uint256"
        }
      ],
      "name": "isConsentExpired",
      "outputs": [
        {
          "internalType": "bool",
          "name": "expired",
          "type": "bool"
        }
      ],
      "stateMutability": "view",
      "type": "function"
    },
    {
      "inputs": [
        {
          "internalType": "address",
          "name": "",
          "type": "address"
        },
        {
          "internalType": "uint256",
          "name": "",
          "type": "uint256"
        }
      ],
      "name": "patientConsents",
      "outputs": [
        {
          "internalType": "uint256",
          "name": "",
          "type": "uint256"
        }
      ],
      "stateMutability": "view",
      "type": "function"
    },
    {
      "inputs": [
        {
          "internalType": "address",
          "name": "",
          "type": "address"
        },
        {
          "internalType": "uint256",
          "name": "",
          "type": "uint256"
        }
      ],
      "name": "patientRequests",
      "outputs": [
        {
          "internalType": "uint256",
          "name": "",
          "type": "uint256"
        }
      ],
      "stateMutability": "view",
      "type": "function"
    },
    {
      "inputs": [
        {
          "internalType": "address",
          "name": "",
          "type": "address"
        },
        {
          "internalType": "uint256",
          "name": "",
          "type": "uint256"
        }
      ],
      "name": "providerConsents",
      "outputs": [
        {
          "internalType": "uint256",
          "name": "",
          "type": "uint256"
        }
      ],
      "stateMutability": "view",
      "type": "function"
    },
    {
      "inputs": [
        {
          "internalType": "address",
          "name": "patient",
          "type": "address"
        },
        {
          "internalType": "string",
          "name": "dataType",
          "type": "string"
        },
        {
          "internalType": "string",
          "name": "purpose",
          "type": "string"
        },
        {
          "internalType": "uint256",
          "name": "expirationTime",
          "type": "uint256"
        }
      ],
      "name": "requestAccess",
      "outputs": [
        {
          "internalType": "uint256",
          "name": "requestId",
          "type": "uint256"
        }
      ],
      "stateMutability": "nonpayable",
      "type": "function"
    },
    {
      "inputs": [],
      "name": "requestCounter",
      "outputs": [
        {
          "internalType": "uint256",
          "name": "",
          "type": "uint256"
        }
      ],
      "stateMutability": "view",
      "type": "function"
    },
    {
      "inputs": [
        {
          "internalType": "uint256",
          "name": "requestId",
          "type": "uint256"
        },
        {
          "internalType": "bool",
          "name": "approved",
          "type": "bool"
        }
      ],
      "name": "respondToAccessRequest",
      "outputs": [],
      "stateMutability": "nonpayable",
      "type": "function"
    },
    {
      "inputs": [
        {
          "internalType": "uint256",
          "name": "consentId",
          "type": "uint256"
        }
      ],
      "name": "revokeConsent",
      "outputs": [],
      "stateMutability": "nonpayable",
      "type": "function"
    }
  ],
  "bytecode": "0x608060405234801561001057600080fd5b50600160009081556008819055600955612fbe8061002f6000396000f3fe608060405234801561001057600080fd5b506004361061012c5760003560e01c806375aef197116100ad5780638edf9214116100715780638edf9214146102ae578063918e08eb146102c1578063973a814e146102e7578063ee12bc71146102f0578063f683ab9d1461031057600080fd5b806375aef197146102455780637decccbf1461025857806381581c601461026b5780638ca91a9a1461027e5780638cbb9524146102a557600080fd5b80632eda5275116100f45780632eda5275146101d95780633217bc72146101f9578063483424051461020c5780634fdf4d511461021f578063650163f11461023257600080fd5b80630c8f9463146101315780630ca9e2a31461015957806316a0042c1461017a578063249243851461018f5780632c06b5a1146101af575b600080fd5b61014461013f36600461236c565b610323565b60405190151581526020015b60405180910390f35b61016c61016736600461243f565b61050a565b604051908152602001610150565b61018d61018836600461236c565b61074c565b005b6101a261019d3660046124bb565b61083a565b6040516101509190612518565b6101c26101bd36600461252b565b6108a6565b604080519215158352602083019190915201610150565b6101ec6101e736600461236c565b610b9b565b60405161015091906125cf565b61016c61020736600461266e565b610d9e565b61016c61021a366004612698565b610dcf565b61016c61022d36600461266e565b61100d565b61016c6102403660046124bb565b611029565b6101a26102533660046124bb565b6111cb565b6101a26102663660046124bb565b6116fd565b61018d610279366004612716565b611767565b61029161028c36600461236c565b611ae6565b604051610150989796959493929190612783565b61016c60085481565b6101a26102bc366004612849565b611c5c565b6102d46102cf36600461236c565b611e4b565b604051610150979695949392919061290d565b61016c60095481565b6103036102fe36600461236c565b611fbb565b6040516101509190612978565b61016c61031e36600461266e565b6120e5565b60008181526006602052604081205460ff1661034157506000919050565b6000828152600160208181526040808420815160e08101835281546001600160a01b039081168252948201549094169284019290925260028201546001600160801b0380821692850192909252600160801b9004166060830152600381015460ff161515608083015260048101805460a0840191906103bf90612a35565b80601f01602080910402602001604051908101604052809291908181526020018280546103eb90612a35565b80156104385780601f1061040d57610100808354040283529160200191610438565b820191906000526020600020905b81548152906001019060200180831161041b57829003601f168201915b5050505050815260200160058201805461045190612a35565b80601f016020809104026020016040519081016040528092919081815260200182805461047d90612a35565b80156104ca5780601f1061049f576101008083540402835291602001916104ca565b820191906000526020600020905b8154815290600101906020018083116104ad57829003601f168201915b505050505081525050905080606001516001600160801b03166000036104f35750600092915050565b60600151426001600160801b039091161092915050565b6000610514612101565b846001600160a01b03811661053c5760405163e6c4247b60e01b815260040160405180910390fd5b84805160000361055f5760405163ecd7b0d160e01b815260040160405180910390fd5b6101008151111561058357604051631623655b60e31b815260040160405180910390fd5b8480516000036105a65760405163ecd7b0d160e01b815260040160405180910390fd5b610100815111156105ca57604051631623655b60e31b815260040160405180910390fd5b336001600160a01b038916036105f357604051630feebe7b60e11b815260040160405180910390fd5b60008511801561060257504285105b15610620576040516317464c7d60e31b815260040160405180910390fd5b60098054600180820190925560008181526004602081905260409091208054336001600160a01b031991821617825593810180549094166001600160a01b038d1617909355426001600160801b03908116600160801b918a169190910217600284015560038301805461ffff19169055909550810161069f8982612ad3565b50600581016106ae8882612ad3565b506000858152600760209081526040808320805460ff191660019081179091556001600160a01b038d1680855260058452828520805492830181558552929093209092018790559051339087907facc65eb355cef916f9c12b5069167c60703723e9da4a52c6d0f526b06c0345029061072e908d908d908d904290612b8d565b60405180910390a4505050506107446001600055565b949350505050565b610754612101565b60008181526006602052604090205460ff16610783576040516310a4d3b360e21b815260040160405180910390fd5b600081815260016020526040902080546001600160a01b031633146107bb57604051630feaf7d560e31b815260040160405180910390fd5b600381015460ff166107e057604051636f7f1c7360e11b815260040160405180910390fd5b60038101805460ff191690556040516001600160801b0342168152339083907f2036d4d0b3411dda9fdee7701d19fff8681b6140d2e21b91b44057e4d2ae4cc29060200160405180910390a3506108376001600055565b50565b6001600160a01b03811660009081526002602090815260409182902080548351818402810184019094528084526060939283018282801561089a57602002820191906000526020600020905b815481526020019060010190808311610886575b50505050509050919050565b6001600160a01b038316600090815260026020908152604080832080548251818502810185019093528083528493849392919083018282801561090857602002820191906000526020600020905b8154815260200190600101908083116108f4575b5050875160208901209394504293925060009150505b8351811015610b8757600084828151811061093b5761093b612bd7565b6020908102919091018101516000818152600690925260409091205490915060ff1661096a575060010161091e565b6000818152600160208181526040808420815160e08101835281546001600160a01b039081168252948201549094169284019290925260028201546001600160801b0380821692850192909252600160801b9004166060830152600381015460ff161515608083015260048101805460a0840191906109e890612a35565b80601f0160208091040260200160405190810160405280929190818152602001828054610a1490612a35565b8015610a615780601f10610a3657610100808354040283529160200191610a61565b820191906000526020600020905b815481529060010190602001808311610a4457829003601f168201915b50505050508152602001600582018054610a7a90612a35565b80601f0160208091040260200160405190810160405280929190818152602001828054610aa690612a35565b8015610af35780601f10610ac857610100808354040283529160200191610af3565b820191906000526020600020905b815481529060010190602001808311610ad657829003601f168201915b5050505050815250509050896001600160a01b031681602001516001600160a01b0316148015610b2d5750838160a0015180519060200120145b8015610b3a575080608001515b8015610b67575060608101516001600160801b03161580610b6757508481606001516001600160801b0316115b15610b7d5750600196509450610b939350505050565b505060010161091e565b50600080945094505050505b935093915050565b6040805160e0810182526000808252602080830182905282840182905260608084018390526080840183905260a0840181905260c084015284825260069052919091205460ff16610bff576040516310a4d3b360e21b815260040160405180910390fd5b600082815260016020818152604092839020835160e08101855281546001600160a01b039081168252938201549093169183019190915260028101546001600160801b0380821694840194909452600160801b90049092166060820152600382015460ff161515608082015260048201805491929160a084019190610c8390612a35565b80601f0160208091040260200160405190810160405280929190818152602001828054610caf90612a35565b8015610cfc5780601f10610cd157610100808354040283529160200191610cfc565b820191906000526020600020905b815481529060010190602001808311610cdf57829003601f168201915b50505050508152602001600582018054610d1590612a35565b80601f0160208091040260200160405190810160405280929190818152602001828054610d4190612a35565b8015610d8e5780601f10610d6357610100808354040283529160200191610d8e565b820191906000526020600020905b815481529060010190602001808311610d7157829003601f168201915b5050505050815250509050919050565b60056020528160005260406000208181548110610dba57600080fd5b90600052602060002001600091509150505481565b6000610dd9612101565b846001600160a01b038116610e015760405163e6c4247b60e01b815260040160405180910390fd5b848051600003610e245760405163ecd7b0d160e01b815260040160405180910390fd5b61010081511115610e4857604051631623655b60e31b815260040160405180910390fd5b838051600003610e6b5760405163ecd7b0d160e01b815260040160405180910390fd5b61010081511115610e8f57604051631623655b60e31b815260040160405180910390fd5b336001600160a01b03891603610eb85760405163300e13e960e01b815260040160405180910390fd5b600086118015610ec757504286105b15610ee5576040516317464c7d60e31b815260040160405180910390fd5b600880546001808201909255600081815260208390526040902080546001600160a01b03199081163317825581840180546001600160a01b038e1692169190911790556001600160801b03898116600160801b02429190911617600282015560038101805460ff1916909317909255945060048101610f648982612ad3565b5060058101610f738782612ad3565b506000858152600660209081526040808320805460ff19166001908117909155338085526002845282852080548084018255908652848620018a90556001600160a01b038e168086526003855283862080549384018155865293909420018890555190919087907f5af3ac7924762cd943a02e4449bc49c3b0590bfdfedd4b09aab5babbaa6337bc9061072e908d908d908d904290612bed565b60026020528160005260406000208181548110610dba57600080fd5b6000611033612101565b6001600160a01b03821660009081526002602090815260408083208054825181850281018501909352808352919290919083018282801561109357602002820191906000526020600020905b81548152602001906001019080831161107f575b5050505050905060004290506000925060005b82518110156111b95760008382815181106110c3576110c3612bd7565b6020908102919091018101516000818152600690925260409091205490915060ff166110f257506001016110a6565b6000818152600160205260409020600381015460ff16801561112757506002810154600160801b90046001600160801b031615155b801561114657506002810154600160801b90046001600160801b031684115b156111af5760038101805460ff191690558561116181612c37565b6040516001600160801b03871681529097506001600160a01b038916915083907fb5b903153191aa84155c6e2437f874bfb63e5fec95ecbf5222a1f8a2412925969060200160405180910390a35b50506001016110a6565b5050506111c66001600055565b919050565b6001600160a01b038116600090815260026020908152604080832080548251818502810185019093528083526060949383018282801561122a57602002820191906000526020600020905b815481526020019060010190808311611216575b5050505050905060004290506000805b835181101561146657600084828151811061125757611257612bd7565b6020908102919091018101516000818152600690925260409091205490915060ff161561145d576000818152600160208181526040808420815160e08101835281546001600160a01b039081168252948201549094169284019290925260028201546001600160801b0380821692850192909252600160801b9004166060830152600381015460ff161515608083015260048101805460a0840191906112fc90612a35565b80601f016020809104026020016040519081016040528092919081815260200182805461132890612a35565b80156113755780601f1061134a57610100808354040283529160200191611375565b820191906000526020600020905b81548152906001019060200180831161135857829003601f168201915b5050505050815260200160058201805461138e90612a35565b80601f01602080910402602001604051908101604052809291908181526020018280546113ba90612a35565b80156114075780601f106113dc57610100808354040283529160200191611407565b820191906000526020600020905b8154815290600101906020018083116113ea57829003601f168201915b5050505050815250509050806080015180156114305750600081606001516001600160801b0316115b801561144857508481606001516001600160801b0316105b1561145b578361145781612c37565b9450505b505b5060010161123a565b508067ffffffffffffffff8111156114805761148061239c565b6040519080825280602002602001820160405280156114a9578160200160208202803683370190505b5093506000805b84518110156116f35760008582815181106114cd576114cd612bd7565b6020908102919091018101516000818152600690925260409091205490915060ff16156116ea576000818152600160208181526040808420815160e08101835281546001600160a01b039081168252948201549094169284019290925260028201546001600160801b0380821692850192909252600160801b9004166060830152600381015460ff161515608083015260048101805460a08401919061157290612a35565b80601f016020809104026020016040519081016040528092919081815260200182805461159e90612a35565b80156115eb5780601f106115c0576101008083540402835291602001916115eb565b820191906000526020600020905b8154815290600101906020018083116115ce57829003601f168201915b5050505050815260200160058201805461160490612a35565b80601f016020809104026020016040519081016040528092919081815260200182805461163090612a35565b801561167d5780601f106116525761010080835404028352916020019161167d565b820191906000526020600020905b81548152906001019060200180831161166057829003601f168201915b5050505050815250509050806080015180156116a65750600081606001516001600160801b0316115b80156116be57508581606001516001600160801b0316105b156116e857818885815181106116d6576116d6612bd7565b60209081029190910101526001909301925b505b506001016114b0565b5050505050919050565b6001600160a01b03811660009081526005602090815260409182902080548351818402810184019094528084526060939283018282801561089a57602002820191906000526020600020908154815260200190600101908083116108865750505050509050919050565b61176f612101565b60008281526007602052604090205460ff1661179e57604051632589d98f60e11b815260040160405180910390fd5b600082815260046020526040902060018101546001600160a01b031633146117d95760405163214370e760e21b815260040160405180910390fd5b600381015460ff16156117ff576040516329af1d3160e21b815260040160405180910390fd5b6002810154600160801b90046001600160801b0316158015906118365750600281015442600160801b9091046001600160801b0316105b156118925760038101805461ffff1916610201179055604080516001600160801b03421681529051339185917f04225a7a904e58aacf1cf0441873a3dc7bb4d7ed4fe2efcbdb35e3e836f43e059181900360200190a350611ad8565b60038101805460ff191660011790558115611a845760038101805461ff001916610100179055604080516001600160801b03421681529051339185917f198a6f9f0ec29b66f4026551a0c3573f1c77f6a203ae1c4014f3abe1d11270069181900360200190a3600880546001808201909255600081815260208390526040902080546001600160a01b031990811633178255845482850180549092166001600160a01b0391909116179055600280820180546001600160801b034281166fffffffffffffffffffffffffffffffff199092168217835592870154600160801b90819004909316909202909117905560038101805460ff1916909317909255906004808201906119a390850182612c5e565b506005818101906119b690850182612c5e565b5060008281526006602090815260408083208054600160ff199091168117909155338085526002808552838620805480850182559087528587200188905588546001600160a01b03908116875260038652848720805494850181558752949095209091018690558654938701549151939092169285917f5af3ac7924762cd943a02e4449bc49c3b0590bfdfedd4b09aab5babbaa6337bc91611a759160048a0191600160801b9091046001600160801b03169060058b01904290612db0565b60405180910390a45050611ad6565b60038101805461ff001916610200179055604080516001600160801b03421681529051339185917f04225a7a904e58aacf1cf0441873a3dc7bb4d7ed4fe2efcbdb35e3e836f43e059181900360200190a35b505b611ae26001600055565b5050565b6004602081905260009182526040909120805460018201546002830154600384015494840180546001600160a01b039485169694909316946001600160801b0380841695600160801b909404169360ff808516946101009004169290611b4b90612a35565b80601f0160208091040260200160405190810160405280929190818152602001828054611b7790612a35565b8015611bc45780601f10611b9957610100808354040283529160200191611bc4565b820191906000526020600020905b815481529060010190602001808311611ba757829003601f168201915b505050505090806005018054611bd990612a35565b80601f0160208091040260200160405190810160405280929190818152602001828054611c0590612a35565b8015611c525780601f10611c2757610100808354040283529160200191611c52565b820191906000526020600020905b815481529060010190602001808311611c3557829003601f168201915b5050505050905088565b6060611c66612101565b876000819003611c895760405163c2e5347d60e01b815260040160405180910390fd5b6032811115611cab5760405163c2e5347d60e01b815260040160405180910390fd5b8087141580611cba5750808514155b80611cc55750808314155b15611ce35760405163c2e5347d60e01b815260040160405180910390fd5b8067ffffffffffffffff811115611cfc57611cfc61239c565b604051908082528060200260200182016040528015611d25578160200160208202803683370190505b5060085490925060005b82811015611df157611dc88c8c83818110611d4c57611d4c612bd7565b9050602002016020810190611d6191906124bb565b8b8b84818110611d7357611d73612bd7565b9050602002810190611d859190612de5565b8b8b86818110611d9757611d97612bd7565b905060200201358a8a87818110611db057611db0612bd7565b9050602002810190611dc29190612de5565b8861212b565b848281518110611dda57611dda612bd7565b602090810291909101015260019182019101611d2f565b50600881905560405133907fca57b3b1173b248648c64614c4052398ff4bd93e15808282b4508d8d24dd6d7390611e2b9086904290612e2c565b60405180910390a25050611e3f6001600055565b98975050505050505050565b6001602081905260009182526040909120805491810154600282015460038301546004840180546001600160a01b0396871696909416946001600160801b0380851695600160801b909504169360ff90931692909190611eaa90612a35565b80601f0160208091040260200160405190810160405280929190818152602001828054611ed690612a35565b8015611f235780601f10611ef857610100808354040283529160200191611f23565b820191906000526020600020905b815481529060010190602001808311611f0657829003601f168201915b505050505090806005018054611f3890612a35565b80601f0160208091040260200160405190810160405280929190818152602001828054611f6490612a35565b8015611fb15780601f10611f8657610100808354040283529160200191611fb1565b820191906000526020600020905b815481529060010190602001808311611f9457829003601f168201915b5050505050905087565b612003604080516101008101825260008082526020820181905291810182905260608101829052608081018290529060a0820190815260200160608152602001606081525090565b60008281526007602052604090205460ff1661203257604051632589d98f60e11b815260040160405180910390fd5b6000828152600460209081526040918290208251610100808201855282546001600160a01b039081168352600184015416938201939093526002808301546001600160801b0380821696840196909652600160801b90049094166060820152600382015460ff808216151560808401529194929360a08601939104909116908111156120c0576120c061274b565b60028111156120d1576120d161274b565b8152602001600482018054610c8390612a35565b60036020528160005260406000208181548110610dba57600080fd5b60026000540361212457604051633ee5aeb560e01b815260040160405180910390fd5b6002600055565b60006001600160a01b0388166121545760405163e6c4247b60e01b815260040160405180910390fd5b336001600160a01b0389160361217d5760405163300e13e960e01b815260040160405180910390fd5b600086900361219f5760405163ecd7b0d160e01b815260040160405180910390fd5b6101008611156121c257604051631623655b60e31b815260040160405180910390fd5b60008390036121e45760405163ecd7b0d160e01b815260040160405180910390fd5b61010083111561220757604051631623655b60e31b815260040160405180910390fd5b60008511801561221657504285105b15612234576040516317464c7d60e31b815260040160405180910390fd5b600082815260016020819052604090912080546001600160a01b03199081163317825581830180546001600160a01b038d1692169190911790556001600160801b03878116600160801b02429190911617600282015560038101805460ff1916909217909155600481016122a9888a83612e57565b50600581016122b9858783612e57565b506000838152600660209081526040808320805460ff19166001908117909155338085526002845282852080548084018255908652848620018890556001600160a01b038e168086526003855283862080549384018155865293909420018690555190919085907f5af3ac7924762cd943a02e4449bc49c3b0590bfdfedd4b09aab5babbaa6337bc90612357908d908d908d908d908d904290612f3a565b60405180910390a45090979650505050505050565b60006020828403121561237e57600080fd5b5035919050565b80356001600160a01b03811681146111c657600080fd5b634e487b7160e01b600052604160045260246000fd5b600082601f8301126123c357600080fd5b813567ffffffffffffffff808211156123de576123de61239c565b604051601f8301601f19908116603f011681019082821181831017156124065761240661239c565b8160405283815286602085880101111561241f57600080fd5b836020870160208301376000602085830101528094505050505092915050565b6000806000806080858703121561245557600080fd5b61245e85612385565b9350602085013567ffffffffffffffff8082111561247b57600080fd5b612487888389016123b2565b9450604087013591508082111561249d57600080fd5b506124aa878288016123b2565b949793965093946060013593505050565b6000602082840312156124cd57600080fd5b6124d682612385565b9392505050565b600081518084526020808501945080840160005b8381101561250d578151875295820195908201906001016124f1565b509495945050505050565b6020815260006124d660208301846124dd565b60008060006060848603121561254057600080fd5b61254984612385565b925061255760208501612385565b9150604084013567ffffffffffffffff81111561257357600080fd5b61257f868287016123b2565b9150509250925092565b6000815180845260005b818110156125af57602081850181015186830182015201612593565b506000602082860101526020601f19601f83011685010191505092915050565b60208152600060018060a01b03808451166020840152806020850151166040840152506001600160801b036040840151166060830152606083015161261f60808401826001600160801b03169052565b50608083015180151560a08401525060a083015160e060c0840152612648610100840182612589565b905060c0840151601f198483030160e08501526126658282612589565b95945050505050565b6000806040838503121561268157600080fd5b61268a83612385565b946020939093013593505050565b600080600080608085870312156126ae57600080fd5b6126b785612385565b9350602085013567ffffffffffffffff808211156126d457600080fd5b6126e0888389016123b2565b94506040870135935060608701359150808211156126fd57600080fd5b5061270a878288016123b2565b91505092959194509250565b6000806040838503121561272957600080fd5b823591506020830135801515811461274057600080fd5b809150509250929050565b634e487b7160e01b600052602160045260246000fd5b6003811061277f57634e487b7160e01b600052602160045260246000fd5b9052565b6001600160a01b038981168252881660208201526001600160801b03878116604083015286166060820152841515608082015260006101006127c860a0840187612761565b8060c08401526127da81840186612589565b905082810360e08401526127ee8185612589565b9b9a5050505050505050505050565b60008083601f84011261280f57600080fd5b50813567ffffffffffffffff81111561282757600080fd5b6020830191508360208260051b850101111561284257600080fd5b9250929050565b6000806000806000806000806080898b03121561286557600080fd5b883567ffffffffffffffff8082111561287d57600080fd5b6128898c838d016127fd565b909a50985060208b01359150808211156128a257600080fd5b6128ae8c838d016127fd565b909850965060408b01359150808211156128c757600080fd5b6128d38c838d016127fd565b909650945060608b01359150808211156128ec57600080fd5b506128f98b828c016127fd565b999c989b5096995094979396929594505050565b6001600160a01b038881168252871660208201526001600160801b03868116604083015285166060820152831515608082015260e060a0820181905260009061295890830185612589565b82810360c084015261296a8185612589565b9a9950505050505050505050565b602080825282516001600160a01b0316828201528201516000906129a760408401826001600160a01b03169052565b5060408301516001600160801b03811660608401525060608301516001600160801b038116608084015250608083015180151560a08401525060a08301516129f260c0840182612761565b5060c08301516101008060e0850152612a0f610120850183612589565b915060e0850151601f198584030182860152612a2b8382612589565b9695505050505050565b600181811c90821680612a4957607f821691505b602082108103612a6957634e487b7160e01b600052602260045260246000fd5b50919050565b601f821115612ab957600081815260208120601f850160051c81016020861015612a965750805b601f850160051c820191505b81811015612ab557828155600101612aa2565b5050505b505050565b600019600383901b1c191660019190911b1790565b815167ffffffffffffffff811115612aed57612aed61239c565b612b0181612afb8454612a35565b84612a6f565b602080601f831160018114612b305760008415612b1e5750858301515b612b288582612abe565b865550612ab5565b600085815260208120601f198616915b82811015612b5f57888601518255948401946001909101908401612b40565b5085821015612b7d5787850151600019600388901b60f8161c191681555b5050505050600190811b01905550565b608081526000612ba06080830187612589565b8281036020840152612bb28187612589565b9150506001600160801b03808516604084015280841660608401525095945050505050565b634e487b7160e01b600052603260045260246000fd5b608081526000612c006080830187612589565b6001600160801b0380871660208501528382036040850152612c228287612589565b92508085166060850152505095945050505050565b600060018201612c5757634e487b7160e01b600052601160045260246000fd5b5060010190565b818103612c69575050565b612c738254612a35565b67ffffffffffffffff811115612c8b57612c8b61239c565b612c9981612afb8454612a35565b6000601f821160018114612cc75760008315612cb55750848201545b612cbf8482612abe565b855550612d2c565b600085815260209020601f19841690600086815260209020845b83811015612d015782860154825560019586019590910190602001612ce1565b5085831015612d1f5781850154600019600388901b60f8161c191681555b50505060018360011b0184555b5050505050565b60008154612d4081612a35565b808552602060018381168015612d5d5760018114612d7757612da5565b60ff1985168884015283151560051b880183019550612da5565b866000528260002060005b85811015612d9d5781548a8201860152908301908401612d82565b890184019650505b505050505092915050565b608081526000612dc36080830187612d33565b6001600160801b0380871660208501528382036040850152612c228287612d33565b6000808335601e19843603018112612dfc57600080fd5b83018035915067ffffffffffffffff821115612e1757600080fd5b60200191503681900382131561284257600080fd5b604081526000612e3f60408301856124dd565b90506001600160801b03831660208301529392505050565b67ffffffffffffffff831115612e6f57612e6f61239c565b612e8383612e7d8354612a35565b83612a6f565b6000601f841160018114612eb15760008515612e9f5750838201355b612ea98682612abe565b845550612d2c565b600083815260209020601f19861690835b82811015612ee25786850135825560209485019460019092019101612ec2565b5086821015612eff5760001960f88860031b161c19848701351681555b505060018560011b0183555050505050565b81835281816020850137506000828201602090810191909152601f909101601f19169091010190565b608081526000612f4e60808301888a612f11565b6001600160801b0380881660208501528382036040850152612f71828789612f11565b92508085166060850152505097965050505050505056fea26469706673582212207ce736e8522d50ecbf8184f169ab22ea2c1cc5c77d84d706b3f771c58dbc116764736f6c63430008140033",
  "linkReferences": {},
  "deployedLinkReferences": {}
}