{
  "_format": "hh-sol-artifact-1",
  "contractName": "PatientConsentManager",
  "sourceName": "contracts/PatientConsentManager.sol",
  "abi": [
    {
      "inputs": [],
      "stateMutability": "nonpayable",
      "type": "constructor"
    },
    {
      "inputs": [],
      "name": "CannotGrantConsentToSelf",
      "type": "error"
    },
    {
      "inputs": [],
      "name": "CannotRequestAccessFromSelf",
      "type": "error"
    },
    {
      "inputs": [],
      "name": "ConsentAlreadyInactive",
      "type": "error"
    },
    {
      "inputs": [],
      "name": "ConsentNotFound",
      "type": "error"
    },
    {
      "inputs": [],
      "name": "EmptyBatch",
      "type": "error"
    },
    {
      "inputs": [],
      "name": "EmptyString",
      "type": "error"
    },
    {
      "inputs": [],
      "name": "ExpirationInPast",
      "type": "error"
    },
    {
      "inputs": [],
      "name": "InvalidAddress",
      "type": "error"
    },
    {
      "inputs": [],
      "name": "ReentrancyGuardReentrantCall",
      "type": "error"
    },
    {
      "inputs": [],
      "name": "RequestAlreadyProcessed",
      "type": "error"
    },
    {
      "inputs": [],
      "name": "RequestNotFound",
      "type": "error"
    },
    {
      "inputs": [],
      "name": "StringTooLong",
      "type": "error"
    },
    {
      "inputs": [],
      "name": "UnauthorizedResponse",
      "type": "error"
    },
    {
      "inputs": [],
      "name": "UnauthorizedRevocation",
      "type": "error"
    },
    {
      "anonymous": false,
      "inputs": [
        {
          "indexed": true,
          "internalType": "uint256",
          "name": "requestId",
          "type": "uint256"
        },
        {
          "indexed": true,
          "internalType": "address",
          "name": "patient",
          "type": "address"
        },
        {
          "indexed": false,
          "internalType": "uint128",
          "name": "timestamp",
          "type": "uint128"
        }
      ],
      "name": "AccessApproved",
      "type": "event"
    },
    {
      "anonymous": false,
      "inputs": [
        {
          "indexed": true,
          "internalType": "uint256",
          "name": "requestId",
          "type": "uint256"
        },
        {
          "indexed": true,
          "internalType": "address",
          "name": "patient",
          "type": "address"
        },
        {
          "indexed": false,
          "internalType": "uint128",
          "name": "timestamp",
          "type": "uint128"
        }
      ],
      "name": "AccessDenied",
      "type": "event"
    },
    {
      "anonymous": false,
      "inputs": [
        {
          "indexed": true,
          "internalType": "uint256",
          "name": "requestId",
          "type": "uint256"
        },
        {
          "indexed": true,
          "internalType": "address",
          "name": "requester",
          "type": "address"
        },
        {
          "indexed": true,
          "internalType": "address",
          "name": "patient",
          "type": "address"
        },
        {
          "indexed": false,
          "internalType": "string[]",
          "name": "dataTypes",
          "type": "string[]"
        },
        {
          "indexed": false,
          "internalType": "string[]",
          "name": "purposes",
          "type": "string[]"
        },
        {
          "indexed": false,
          "internalType": "uint128",
          "name": "expirationTime",
          "type": "uint128"
        },
        {
          "indexed": false,
          "internalType": "uint128",
          "name": "timestamp",
          "type": "uint128"
        }
      ],
      "name": "AccessRequested",
      "type": "event"
    },
    {
      "anonymous": false,
      "inputs": [
        {
          "indexed": true,
          "internalType": "address",
          "name": "patient",
          "type": "address"
        },
        {
          "indexed": false,
          "internalType": "uint256[]",
          "name": "consentIds",
          "type": "uint256[]"
        },
        {
          "indexed": false,
          "internalType": "uint128",
          "name": "timestamp",
          "type": "uint128"
        }
      ],
      "name": "ConsentBatchGranted",
      "type": "event"
    },
    {
      "anonymous": false,
      "inputs": [
        {
          "indexed": true,
          "internalType": "uint256",
          "name": "consentId",
          "type": "uint256"
        },
        {
          "indexed": true,
          "internalType": "address",
          "name": "patient",
          "type": "address"
        },
        {
          "indexed": false,
          "internalType": "uint128",
          "name": "timestamp",
          "type": "uint128"
        }
      ],
      "name": "ConsentExpired",
      "type": "event"
    },
    {
      "anonymous": false,
      "inputs": [
        {
          "indexed": true,
          "internalType": "uint256",
          "name": "consentId",
          "type": "uint256"
        },
        {
          "indexed": true,
          "internalType": "address",
          "name": "patient",
          "type": "address"
        },
        {
          "indexed": true,
          "internalType": "address",
          "name": "provider",
          "type": "address"
        },
        {
          "indexed": false,
          "internalType": "bytes32",
          "name": "dataTypeHash",
          "type": "bytes32"
        },
        {
          "indexed": false,
          "internalType": "uint128",
          "name": "expirationTime",
          "type": "uint128"
        },
        {
          "indexed": false,
          "internalType": "bytes32",
          "name": "purposeHash",
          "type": "bytes32"
        },
        {
          "indexed": false,
          "internalType": "uint128",
          "name": "timestamp",
          "type": "uint128"
        }
      ],
      "name": "ConsentGranted",
      "type": "event"
    },
    {
      "anonymous": false,
      "inputs": [
        {
          "indexed": true,
          "internalType": "uint256",
          "name": "consentId",
          "type": "uint256"
        },
        {
          "indexed": true,
          "internalType": "address",
          "name": "patient",
          "type": "address"
        },
        {
          "indexed": false,
          "internalType": "uint128",
          "name": "timestamp",
          "type": "uint128"
        }
      ],
      "name": "ConsentRevoked",
      "type": "event"
    },
    {
      "inputs": [
        {
          "internalType": "uint256",
          "name": "",
          "type": "uint256"
        }
      ],
      "name": "accessRequests",
      "outputs": [
        {
          "internalType": "address",
          "name": "requester",
          "type": "address"
        },
        {
          "internalType": "address",
          "name": "patientAddress",
          "type": "address"
        },
        {
          "internalType": "uint128",
          "name": "timestamp",
          "type": "uint128"
        },
        {
          "internalType": "uint128",
          "name": "expirationTime",
          "type": "uint128"
        },
        {
          "internalType": "bool",
          "name": "isProcessed",
          "type": "bool"
        },
        {
          "internalType": "enum PatientConsentManager.RequestStatus",
          "name": "status",
          "type": "uint8"
        },
        {
          "internalType": "string",
          "name": "dataType",
          "type": "string"
        },
        {
          "internalType": "string",
          "name": "purpose",
          "type": "string"
        }
      ],
      "stateMutability": "view",
      "type": "function"
    },
    {
      "inputs": [
        {
          "internalType": "uint256",
          "name": "",
          "type": "uint256"
        }
      ],
      "name": "batchConsentRecords",
      "outputs": [
        {
          "internalType": "address",
          "name": "patientAddress",
          "type": "address"
        },
        {
          "internalType": "address",
          "name": "providerAddress",
          "type": "address"
        },
        {
          "internalType": "uint128",
          "name": "timestamp",
          "type": "uint128"
        },
        {
          "internalType": "uint128",
          "name": "expirationTime",
          "type": "uint128"
        },
        {
          "internalType": "bool",
          "name": "isActive",
          "type": "bool"
        }
      ],
      "stateMutability": "view",
      "type": "function"
    },
    {
      "inputs": [
        {
          "internalType": "address",
          "name": "patient",
          "type": "address"
        }
      ],
      "name": "checkAndExpireConsents",
      "outputs": [
        {
          "internalType": "uint256",
          "name": "expiredCount",
          "type": "uint256"
        }
      ],
      "stateMutability": "nonpayable",
      "type": "function"
    },
    {
      "inputs": [],
      "name": "consentCounter",
      "outputs": [
        {
          "internalType": "uint256",
          "name": "",
          "type": "uint256"
        }
      ],
      "stateMutability": "view",
      "type": "function"
    },
    {
      "inputs": [
        {
          "internalType": "uint256",
          "name": "",
          "type": "uint256"
        }
      ],
      "name": "consentRecords",
      "outputs": [
        {
          "internalType": "address",
          "name": "patientAddress",
          "type": "address"
        },
        {
          "internalType": "address",
          "name": "providerAddress",
          "type": "address"
        },
        {
          "internalType": "uint128",
          "name": "timestamp",
          "type": "uint128"
        },
        {
          "internalType": "uint128",
          "name": "expirationTime",
          "type": "uint128"
        },
        {
          "internalType": "bool",
          "name": "isActive",
          "type": "bool"
        },
        {
          "internalType": "bytes32",
          "name": "dataTypeHash",
          "type": "bytes32"
        },
        {
          "internalType": "bytes32",
          "name": "purposeHash",
          "type": "bytes32"
        }
      ],
      "stateMutability": "view",
      "type": "function"
    },
    {
      "inputs": [
        {
          "internalType": "bytes32",
          "name": "",
          "type": "bytes32"
        }
      ],
      "name": "dataTypeHashToString",
      "outputs": [
        {
          "internalType": "string",
          "name": "",
          "type": "string"
        }
      ],
      "stateMutability": "view",
      "type": "function"
    },
    {
      "inputs": [
        {
          "internalType": "uint256",
          "name": "requestId",
          "type": "uint256"
        }
      ],
      "name": "getAccessRequest",
      "outputs": [
        {
          "components": [
            {
              "internalType": "address",
              "name": "requester",
              "type": "address"
            },
            {
              "internalType": "address",
              "name": "patientAddress",
              "type": "address"
            },
            {
              "internalType": "uint128",
              "name": "timestamp",
              "type": "uint128"
            },
            {
              "internalType": "uint128",
              "name": "expirationTime",
              "type": "uint128"
            },
            {
              "internalType": "bool",
              "name": "isProcessed",
              "type": "bool"
            },
            {
              "internalType": "enum PatientConsentManager.RequestStatus",
              "name": "status",
              "type": "uint8"
            },
            {
              "internalType": "string",
              "name": "dataType",
              "type": "string"
            },
            {
              "internalType": "string",
              "name": "purpose",
              "type": "string"
            }
          ],
          "internalType": "struct PatientConsentManager.AccessRequest",
          "name": "",
          "type": "tuple"
        }
      ],
      "stateMutability": "view",
      "type": "function"
    },
    {
      "inputs": [
        {
          "internalType": "uint256",
          "name": "consentId",
          "type": "uint256"
        }
      ],
      "name": "getBatchConsentRecord",
      "outputs": [
        {
          "components": [
            {
              "internalType": "address",
              "name": "patientAddress",
              "type": "address"
            },
            {
              "internalType": "address",
              "name": "providerAddress",
              "type": "address"
            },
            {
              "internalType": "uint128",
              "name": "timestamp",
              "type": "uint128"
            },
            {
              "internalType": "uint128",
              "name": "expirationTime",
              "type": "uint128"
            },
            {
              "internalType": "bool",
              "name": "isActive",
              "type": "bool"
            },
            {
              "internalType": "bytes32[]",
              "name": "dataTypeHashes",
              "type": "bytes32[]"
            },
            {
              "internalType": "bytes32[]",
              "name": "purposeHashes",
              "type": "bytes32[]"
            }
          ],
          "internalType": "struct PatientConsentManager.BatchConsentRecord",
          "name": "",
          "type": "tuple"
        }
      ],
      "stateMutability": "view",
      "type": "function"
    },
    {
      "inputs": [
        {
          "internalType": "uint256",
          "name": "consentId",
          "type": "uint256"
        }
      ],
      "name": "getConsentRecord",
      "outputs": [
        {
          "components": [
            {
              "internalType": "address",
              "name": "patientAddress",
              "type": "address"
            },
            {
              "internalType": "address",
              "name": "providerAddress",
              "type": "address"
            },
            {
              "internalType": "uint128",
              "name": "timestamp",
              "type": "uint128"
            },
            {
              "internalType": "uint128",
              "name": "expirationTime",
              "type": "uint128"
            },
            {
              "internalType": "bool",
              "name": "isActive",
              "type": "bool"
            },
            {
              "internalType": "bytes32",
              "name": "dataTypeHash",
              "type": "bytes32"
            },
            {
              "internalType": "bytes32",
              "name": "purposeHash",
              "type": "bytes32"
            }
          ],
          "internalType": "struct PatientConsentManager.ConsentRecord",
          "name": "",
          "type": "tuple"
        }
      ],
      "stateMutability": "view",
      "type": "function"
    },
    {
      "inputs": [
        {
          "internalType": "address",
          "name": "patient",
          "type": "address"
        }
      ],
      "name": "getExpiredConsents",
      "outputs": [
        {
          "internalType": "uint256[]",
          "name": "expiredIds",
          "type": "uint256[]"
        }
      ],
      "stateMutability": "view",
      "type": "function"
    },
    {
      "inputs": [
        {
          "internalType": "address",
          "name": "patient",
          "type": "address"
        }
      ],
      "name": "getPatientConsents",
      "outputs": [
        {
          "internalType": "uint256[]",
          "name": "",
          "type": "uint256[]"
        }
      ],
      "stateMutability": "view",
      "type": "function"
    },
    {
      "inputs": [
        {
          "internalType": "address",
          "name": "patient",
          "type": "address"
        }
      ],
      "name": "getPatientRequests",
      "outputs": [
        {
          "internalType": "uint256[]",
          "name": "",
          "type": "uint256[]"
        }
      ],
      "stateMutability": "view",
      "type": "function"
    },
    {
      "inputs": [
        {
          "internalType": "address",
          "name": "provider",
          "type": "address"
        },
        {
          "internalType": "string",
          "name": "dataType",
          "type": "string"
        },
        {
          "internalType": "uint256",
          "name": "expirationTime",
          "type": "uint256"
        },
        {
          "internalType": "string",
          "name": "purpose",
          "type": "string"
        }
      ],
      "name": "grantConsent",
      "outputs": [
        {
          "internalType": "uint256",
          "name": "consentId",
          "type": "uint256"
        }
      ],
      "stateMutability": "nonpayable",
      "type": "function"
    },
    {
      "inputs": [
        {
          "internalType": "address[]",
          "name": "providers",
          "type": "address[]"
        },
        {
          "internalType": "string[]",
          "name": "dataTypes",
          "type": "string[]"
        },
        {
          "internalType": "uint256[]",
          "name": "expirationTimes",
          "type": "uint256[]"
        },
        {
          "internalType": "string[]",
          "name": "purposes",
          "type": "string[]"
        }
      ],
      "name": "grantConsentBatch",
      "outputs": [
        {
          "internalType": "uint256[]",
          "name": "consentIds",
          "type": "uint256[]"
        }
      ],
      "stateMutability": "nonpayable",
      "type": "function"
    },
    {
      "inputs": [
        {
          "internalType": "address",
          "name": "patient",
          "type": "address"
        },
        {
          "internalType": "address",
          "name": "provider",
          "type": "address"
        },
        {
          "internalType": "string",
          "name": "dataType",
          "type": "string"
        }
      ],
      "name": "hasActiveConsent",
      "outputs": [
        {
          "internalType": "bool",
          "name": "hasConsent",
          "type": "bool"
        },
        {
          "internalType": "uint256",
          "name": "consentId",
          "type": "uint256"
        }
      ],
      "stateMutability": "view",
      "type": "function"
    },
    {
      "inputs": [
        {
          "internalType": "uint256",
          "name": "",
          "type": "uint256"
        }
      ],
      "name": "isBatchConsent",
      "outputs": [
        {
          "internalType": "bool",
          "name": "",
          "type": "bool"
        }
      ],
      "stateMutability": "view",
      "type": "function"
    },
    {
      "inputs": [
        {
          "internalType": "uint256",
          "name": "consentId",
          "type": "uint256"
        }
      ],
      "name": "isConsentExpired",
      "outputs": [
        {
          "internalType": "bool",
          "name": "expired",
          "type": "bool"
        }
      ],
      "stateMutability": "view",
      "type": "function"
    },
    {
      "inputs": [
        {
          "internalType": "address",
          "name": "",
          "type": "address"
        },
        {
          "internalType": "uint256",
          "name": "",
          "type": "uint256"
        }
      ],
      "name": "patientConsents",
      "outputs": [
        {
          "internalType": "uint256",
          "name": "",
          "type": "uint256"
        }
      ],
      "stateMutability": "view",
      "type": "function"
    },
    {
      "inputs": [
        {
          "internalType": "address",
          "name": "",
          "type": "address"
        },
        {
          "internalType": "uint256",
          "name": "",
          "type": "uint256"
        }
      ],
      "name": "patientRequests",
      "outputs": [
        {
          "internalType": "uint256",
          "name": "",
          "type": "uint256"
        }
      ],
      "stateMutability": "view",
      "type": "function"
    },
    {
      "inputs": [
        {
          "internalType": "address",
          "name": "",
          "type": "address"
        },
        {
          "internalType": "uint256",
          "name": "",
          "type": "uint256"
        }
      ],
      "name": "providerConsents",
      "outputs": [
        {
          "internalType": "uint256",
          "name": "",
          "type": "uint256"
        }
      ],
      "stateMutability": "view",
      "type": "function"
    },
    {
      "inputs": [
        {
          "internalType": "bytes32",
          "name": "",
          "type": "bytes32"
        }
      ],
      "name": "purposeHashToString",
      "outputs": [
        {
          "internalType": "string",
          "name": "",
          "type": "string"
        }
      ],
      "stateMutability": "view",
      "type": "function"
    },
    {
      "inputs": [
        {
          "internalType": "address",
          "name": "patient",
          "type": "address"
        },
        {
          "internalType": "string[]",
          "name": "dataTypes",
          "type": "string[]"
        },
        {
          "internalType": "string[]",
          "name": "purposes",
          "type": "string[]"
        },
        {
          "internalType": "uint256",
          "name": "expirationTime",
          "type": "uint256"
        }
      ],
      "name": "requestAccess",
      "outputs": [
        {
          "internalType": "uint256",
          "name": "requestId",
          "type": "uint256"
        }
      ],
      "stateMutability": "nonpayable",
      "type": "function"
    },
    {
      "inputs": [],
      "name": "requestCounter",
      "outputs": [
        {
          "internalType": "uint256",
          "name": "",
          "type": "uint256"
        }
      ],
      "stateMutability": "view",
      "type": "function"
    },
    {
      "inputs": [
        {
          "internalType": "uint256",
          "name": "",
          "type": "uint256"
        },
        {
          "internalType": "uint256",
          "name": "",
          "type": "uint256"
        }
      ],
      "name": "requestDataTypes",
      "outputs": [
        {
          "internalType": "string",
          "name": "",
          "type": "string"
        }
      ],
      "stateMutability": "view",
      "type": "function"
    },
    {
      "inputs": [
        {
          "internalType": "uint256",
          "name": "",
          "type": "uint256"
        },
        {
          "internalType": "uint256",
          "name": "",
          "type": "uint256"
        }
      ],
      "name": "requestPurposes",
      "outputs": [
        {
          "internalType": "string",
          "name": "",
          "type": "string"
        }
      ],
      "stateMutability": "view",
      "type": "function"
    },
    {
      "inputs": [
        {
          "internalType": "uint256",
          "name": "requestId",
          "type": "uint256"
        },
        {
          "internalType": "bool",
          "name": "approved",
          "type": "bool"
        }
      ],
      "name": "respondToAccessRequest",
      "outputs": [],
      "stateMutability": "nonpayable",
      "type": "function"
    },
    {
      "inputs": [
        {
          "internalType": "uint256",
          "name": "consentId",
          "type": "uint256"
        }
      ],
      "name": "revokeConsent",
      "outputs": [],
      "stateMutability": "nonpayable",
      "type": "function"
    }
  ],
  "bytecode": "0x608080604052346100255760016000556000600d556000600e55613136908161002b8239f35b600080fdfe610140604052600436101561001357600080fd5b60003560e01c8063050f8ad614611f715780630c8f946314611f4957806316a0042c14611e9357806317bf30d914611e675780632492438514611df05780632c06b5a114611d895780632eda527514611c6c5780633217bc7214611c22578063483424051461181d57806348a361ba146117ec5780634cc56e2a1461177d5780634fdf4d5114611724578063650163f1146114d85780636e37654e146111af57806375aef19714610d6d5780637decccbf14610ce257806381581c6014610caa5780638ca91a9a14610beb5780638cbb952414610bcd5780638edf9214146105d55780638f1bc4831461046c578063918e08eb146103e7578063973a814e146103c95780639c4f0dc51461038d578063ee12bc71146101e7578063f2607bd4146101a35763f683ab9d1461014657600080fd5b3461019e57604036600319011261019e5761015f61218a565b6001600160a01b031660009081526004602052604090208054602435919082101561019e5760209161019091611fbd565b90546040519160031b1c8152f35b600080fd5b3461019e57602036600319011261019e57600435600052600c6020526101e36101cf604060002061207d565b60405191829160208352602083019061214a565b0390f35b3461019e5760208060031936011261019e57600435606060e060405161020c81612040565b600081526000858201526000604082015260008382015260006080820152600060a08201528260c08201520152806000526008825260ff604060002054161561037b576000526006815260406000206040519061026882612040565b60018060a01b03918282541681528260018301541684820190815260028301549060408301936001600160801b038084168652606085019360801c845260038201549060ff60808701928181161515845260081c169460a08701936003871015610365576101e3988a610339976102f9600587958d9c8b5260c06102ee6004830161207d565b9d019c8d520161207d565b9a60e081019b8c526040519e8f9e8f928284525116910152511660408c0152511660608a01525116608088015251151560a08701525160c0860190612265565b51610352610100918260e087015261012086019061214a565b915190601f19858403019085015261214a565b634e487b7160e01b600052602160045260246000fd5b604051632589d98f60e11b8152600490fd5b3461019e5761039b36611fa7565b90600052600a602052604060002090815481101561019e576103c36101cf916101e393611fbd565b90612123565b3461019e57600036600319011261019e576020600e54604051908152f35b3461019e57602036600319011261019e57600435600052600160205260e0604060002060018060a01b0390818154169160018201541690600281015460ff60038301541690600560048401549301549360405195865260208601526001600160801b038116604086015260801c60608501521515608084015260a083015260c0820152f35b3461019e5760208060031936011261019e57600435606060c060405161049181612025565b6000815260008582015260006040820152600083820152600060808201528260a08201520152806000526005825260ff60406000205416156105c35760005260028152604060002090604051916104e783612025565b60018060a01b03808254168452806001830154169083850191825260028301549260408601936001600160801b038082168652606088019160801c825260ff60038401541691608089019215158352610555600561054760048701612c9c565b9560a08c0196875201612c9c565b9560c08a01968752858a5116156105c3576101e3978684928b6105b0996040519e8f9e8f525116908d0152511660408b0152511660608901525116608087015251151560a08601525160e060c08601526101008501906121a0565b9051838203601f190160e08501526121a0565b6040516310a4d3b360e21b8152600490fd5b3461019e57608036600319011261019e576004356001600160401b03811161019e57610605903690600401612235565b6024356001600160401b03811161019e57610624903690600401612235565b60a05260c0526044356001600160401b03811161019e57610649903690600401612235565b90610100526064356001600160401b03811161019e5761066d903690600401612235565b939060e05261067a6122fb565b8215610ba75760c88311610ba75760a0518314801590610bc3575b8015610bb9575b610ba7576106a983612335565b608052600d546000610120525b6101205184811015610b47576106cd908584612367565b356001600160a01b038116810361019e576106f06101205160a05160c0516123b1565b909161072d610706610120518861010051612367565b359261072561071b610120518c60e0516123b1565b96909236916121d4565b9436916121d4565b906001600160a01b03811615610b35576001600160a01b0381163314610b2357835115610b1157610100845111610aff57815115610b1157610100825111610aff5782151580610af6575b610ae4578351602085012091805160208201209483600052600b806020526107a4604060002054611feb565b15610a0e575b505084600052600c806020526107c4604060002054611feb565b156108e8575b505060008581526001602081905260409091208054336001600160a01b031991821617825581830180546001600160a01b03861692169190911790556001600160801b034281166001600160801b0319608088901b1617600283015591969594919091169285926000805160206130e1833981519152928660056003928381018c60ff198254161790558560048201550155336000526020526108718460406000206122c6565b878060a01b038116600052600460205261088f8460406000206122c6565b604080519283526001600160801b03958616602084015282019590955242909316606084015260a086901b869003909316923392608090a4806108d7610120516080516123f2565b5261012080516001019052016106b6565b856000526020526040600020908051906001600160401b0382116109f85761091a826109148554611feb565b85612272565b602090601f8311600114610976579282899897969360019a96936000805160206130e18339815191529660009261096b575b5050600019600383901b1c1916908a1b1790555b9250929394956107ca565b015190508f8061094c565b908360005260206000209160005b601f19851681106109e05750928998979693926000805160206130e1833981519152959260019b979483601f198116106109c7575b505050891b89019055610960565b015160001960f88460031b161c191690558e80806109b9565b91926020600181928685015181550194019201610984565b634e487b7160e01b600052604160045260246000fd5b846000526020526040600020908051906001600160401b0382116109f8578190610a4282610a3c8654611feb565b86612272565b602090601f8311600114610a7f57600092610a74575b50508160011b916000199060031b1c19161790555b8a806107aa565b015190508d80610a58565b60008581526020812093505b601f1985168110610acc575083601f19811610610ab3575b505050600190811b019055610a6d565b015160001960f88460031b161c191690558c8080610aa3565b91926020600181928685015181550194019201610a8b565b6040516317464c7d60e31b8152600490fd5b50428310610778565b604051631623655b60e31b8152600490fd5b60405163ecd7b0d160e01b8152600490fd5b60405163300e13e960e01b8152600490fd5b60405163e6c4247b60e01b8152600490fd5b50600d556040517fca57b3b1173b248648c64614c4052398ff4bd93e15808282b4508d8d24dd6d73339180610b886001600160801b03421660805183612406565b0390a2600160005560405160208152806101e3602082016080516121a0565b60405163c2e5347d60e01b8152600490fd5b508383141561069c565b5081831415610695565b3461019e57600036600319011261019e576020600d54604051908152f35b3461019e57602036600319011261019e576004356000526006602052604060002060018060a01b036101e3818354169160018401541692610c9c600282015491610c8b6003820154610c4b6005610c446004860161207d565b940161207d565b94604051988998895260208901526001600160801b038116604089015260801c606088015260ff81161515608088015260ff60a088019160081c16612265565b6101008060c087015285019061214a565b9083820360e085015261214a565b3461019e57604036600319011261019e57602435801515810361019e57610cdb90610cd36122fb565b6004356125b1565b6001600055005b3461019e5760208060031936011261019e576001600160a01b03610d0461218a565b1660005260078152604060002090604051808383829554938481520190600052836000209260005b85828210610d5757505050610d439250038361205c565b6101e36040519282849384528301906121a0565b8554845260019586019588955093019201610d2c565b3461019e5760208060031936011261019e576001600160a01b0380610d9061218a565b166000526003808352604060002092604051808583829754938481520190600052836000209260005b8582821061119957505050610dd09250038561205c565b60009160005b8551811015610fa057610de981876123f2565b518060005260059081855260ff908160406000205416600014610ee457600052600280865287604060002091610e7b60405191610e2583612025565b838554168352836001860154168a840152840154956001600160801b039485881660408501526060840196608098891c88528a820154169784019715158852610e7060048201612c9c565b60a085015201612c9c565b60c0820152511615159283610ed9575b5082610ecc575b82610ebd575b5050610ea9575b6001905b01610dd6565b92610eb56001916130d1565b939050610e9f565b90915042915116108780610e98565b8151811615159250610e92565b511515925089610e8b565b50600180865260406000209260c060405191610eff83612025565b8a808754169485855287015416898401526002860154956001600160801b0387166040850152608096871c95866060860152898201541615158097850152600481015460a0850152015491015215159182610f98575b5081610f8e575b81610f84575b50610f70575b600190610ea3565b92610f7c6001916130d1565b939050610f68565b9050421187610f62565b8015159150610f5c565b915088610f55565b509091610fac90612335565b9060009160005b865181101561118357610fc681886123f2565b518060005260059081875260ff9182604060002054166000146110c0578160005260029283895260406000208a604051610fff81612025565b8183541681526110506001978d848a8701541690840152840154956001600160801b039485881660408501526060840196608098891c88528d820154169784019715158852610e7060048201612c9c565b60c08201525116151592836110b5575b50826110a8575b82611099575b5050611080575b50506001905b01610fb3565b946001929561108f82866123f2565b5201939088611074565b90915042915116108a8061106d565b8151811615159250611067565b51151592508c611060565b6001928389526040600020916040516110d881612025565b60c08c855416928383528d88870154168d8401526002860154956001600160801b0387166040850152608096871c958660608601528c8201541615158097850152600481015460a085015201549101521515918261117b575b5081611171575b81611167575b5061114e575b505060019061107a565b946001929561115d82866123f2565b5201939088611144565b905042118a61113e565b8015159150611138565b91508b611131565b50836101e36040519282849384528301906121a0565b855484526001958601958a955093019201610db9565b3461019e57608036600319011261019e576111c861218a565b6001600160401b0360243581811161019e576111e8903690600401612235565b92909160443590811161019e57611203903690600401612235565b939091606435906112126122fb565b6001600160a01b0316918215610b35573383146114c6578015610ba7578515610ba75785810281810487036114b05760c810610ba757811515806114a7575b610ae45793929460005b85811061146f575060005b8181106114375750600e8054600180820190925560008181526006602090815260409091208054336001600160a01b03199182161782558185018054909116881790556001600160801b034281166001600160801b0319608089901b1681176002840155929a93999498961695899493916113159060059060038101805461ffff191690556113026112f88886612377565b906004840161242d565b61130c8986612377565b9290910161242d565b8460005260098b528a6040600020600a82526040600020908b60005b88811061140c5750905060005b8981106113dc57505050956113b36113c09392600788997f41ada9f1b046024c0b89c1b73503298cb8f2ba7284029ca53d4d451da00463a999600052600881528d60406000209060ff198254161790558c600052526113a18960406000206122c6565b6040519660808852608088019161251a565b918583038d87015261251a565b94604083015260608201528033940390a4600055604051908152f35b919394969895975091506113fb6113f48287896123b1565b90856124ea565b01908b908a8c97959896949361133e565b91935091939496989597506114256113f4828b886123b1565b0190918b9694979593928b8e93611331565b611446818389979894996123b1565b905015610b115761010061145b8289886123b1565b905011610aff576001019590949395611266565b61147e818787989499976123b1565b905015610b11576101006114938284896123b1565b905011610aff57600101959094939561125b565b50428210611251565b634e487b7160e01b600052601160045260246000fd5b604051630feebe7b60e11b8152600490fd5b3461019e5760208060031936011261019e576114f261218a565b6114fa6122fb565b60018060a01b0380911680600052600392838152604060002092604051808584829754938481520190600052846000209260005b8682821061170e575050506115459250038561205c565b60009160005b85518110156117005761155e81876123f2565b5180600052600583528560ff806040600020541660001461164157826000526002908186526040600020918783541615611633578b83019283549283169182611623575b82611611575b50506115c0575b505050506001905b01945b9461154b565b966115d591600195949860ff191690556130d1565b957fb5b903153191aa84155c6e2437f874bfb63e5fec95ecbf5222a1f8a241292596856040516001600160801b0342168152a3908589806115af565b9091504291015460801c108c806115a8565b8181015460801c151592506115a2565b5050505050600101946115ba565b60019081865260406000209187835416156116f357508a820191825491821690816116e2575b816116d0575b5061167f575b505050506001906115b7565b9661169491600195949860ff191690556130d1565b957fb5b903153191aa84155c6e2437f874bfb63e5fec95ecbf5222a1f8a241292596856040516001600160801b0342168152a390858980611673565b905060024291015460801c108c61166d565b600281015460801c15159150611667565b94935050505001946115ba565b506001600055604051838152f35b855484526001958601958a95509301920161152e565b3461019e57604036600319011261019e5761173d61218a565b6001600160a01b031660009081526003602052604090208054602435919082101561019e5760209161176e91611fbd565b90549060031b1c604051908152f35b3461019e57602036600319011261019e57600435600052600260205260a06040600020600180831b039081815416916001820154169060ff60036002830154920154169160405193845260208401526001600160801b038116604084015260801c606083015215156080820152f35b3461019e57602036600319011261019e576004356000526005602052602060ff604060002054166040519015158152f35b3461019e57608036600319011261019e5761183661218a565b6024356001600160401b03811161019e5761185590369060040161221a565b906064356001600160401b03811161019e5761187590369060040161221a565b9061187e6122fb565b6001600160a01b03811615610b3557825115610b115761010080845111610aff57825115610b1157825111610aff576001600160a01b0381163314610b2357604435151580611c17575b610ae457600d549160018301600d558351602085012090805160208201209482600052600b6020526118fe604060002054611feb565b15611b3f575b5084600052600c60205261191c604060002054611feb565b15611a3c575b50600083815260016020818152604090922080546001600160a01b03199081163317825591810180549092166001600160a01b03861617909155604435608081901b6001600160801b031916426001600160801b0390811691821760028501559397919093169486936000805160206130e183398151915293611a2c9190849060059060038101600160ff1982541617905589600482015501553360005260038a526119d28660406000206122c6565b60018060a01b03831660005260048a526119f08660406000206122c6565b604080519788526001600160801b0398891660208901528701939093529590911660608501526001600160a01b03169333939081906080820190565b0390a46001600055604051908152f35b84600052600c6020526040600020948151906001600160401b0382116109f8578682611a758894611a6f60209b54611feb565b84612272565b8894601f8211600114611ac5576000805160206130e183398151915294958291600092611aba575b50508160011b916000199060031b1c19161790555b955050611922565b015190508a80611a9d565b82600052896000209060005b601f1984168110611b255750906000805160206130e183398151915295968392600194601f19811610611b0c575b505050811b019055611ab2565b015160001960f88460031b161c191690558a8080611aff565b818801518355968b01968a96506001909201918b01611ad1565b82600052600b6020526040600020908051906001600160401b0382116109f8578190611b6f82610a3c8654611feb565b602090601f8311600114611bab57600092611ba0575b50508160011b916000199060031b1c19161790555b85611904565b015190508880611b85565b9250836000526020600020906000935b601f1984168510611bfc576001945083601f19811610611be3575b505050811b019055611b9a565b015160001960f88460031b161c19169055888080611bd6565b81810151835560209485019460019093019290910190611bbb565b5042604435106118c8565b3461019e57604036600319011261019e57611c3b61218a565b6001600160a01b031660009081526007602052604090208054602435919082101561019e5760209161019091611fbd565b3461019e5760208060031936011261019e57600435600060c0604051611c9181612025565b82815282858201528260408201528260608201528260808201528260a08201520152806000526005825260ff604060002054166105c3576000526001815260406000209060405190611ce282612025565b60018060a01b0392838154169182845284600183015416818501908152600283015460408601916001600160801b03928383168152606088019260801c835260ff60038701541694608089019515158652600560048801549760a08b0198895201549760c08a01988952156105c35789859360e09b6040519b51168b52511690890152511660408701525116606085015251151560808401525160a08301525160c0820152f35b3461019e57606036600319011261019e57611da261218a565b602435906001600160a01b038216820361019e57604435906001600160401b03821161019e57604092611ddc611de293369060040161221a565b91612ceb565b825191151582526020820152f35b3461019e5760208060031936011261019e576001600160a01b03611e1261218a565b1660005260038152604060002090604051808383829554938481520190600052836000209260005b85828210611e5157505050610d439250038361205c565b8554845260019586019588955093019201611e3a565b3461019e57602036600319011261019e57600435600052600b6020526101e36101cf604060002061207d565b3461019e57602036600319011261019e57600435611eaf6122fb565b600081815260016020526040902080546001600160a01b031680156105c3573303611f3757600301805460ff811615611f255760ff19169055604051906001600160801b03421682527f2036d4d0b3411dda9fdee7701d19fff8681b6140d2e21b91b44057e4d2ae4cc260203393a36001600055005b604051636f7f1c7360e11b8152600490fd5b604051630feaf7d560e31b8152600490fd5b3461019e57602036600319011261019e576020611f67600435612f9f565b6040519015158152f35b3461019e57611f7f36611fa7565b906000526009602052604060002090815481101561019e576103c36101cf916101e393611fbd565b604090600319011261019e576004359060243590565b8054821015611fd55760005260206000200190600090565b634e487b7160e01b600052603260045260246000fd5b90600182811c9216801561201b575b602083101461200557565b634e487b7160e01b600052602260045260246000fd5b91607f1691611ffa565b60e081019081106001600160401b038211176109f857604052565b61010081019081106001600160401b038211176109f857604052565b90601f801991011681019081106001600160401b038211176109f857604052565b906040519182600082549261209184611feb565b90818452600194858116908160001461210057506001146120bd575b50506120bb9250038361205c565b565b9093915060005260209081600020936000915b8183106120e85750506120bb935082010138806120ad565b855488840185015294850194879450918301916120d0565b9150506120bb94506020925060ff191682840152151560051b82010138806120ad565b90612134576121319061207d565b90565b634e487b7160e01b600052600060045260246000fd5b919082519283825260005b848110612176575050826000602080949584010152601f8019910116010190565b602081830181015184830182015201612155565b600435906001600160a01b038216820361019e57565b90815180825260208080930193019160005b8281106121c0575050505090565b8351855293810193928101926001016121b2565b9291926001600160401b0382116109f857604051916121fd601f8201601f19166020018461205c565b82948184528183011161019e578281602093846000960137010152565b9080601f8301121561019e57816020612131933591016121d4565b9181601f8401121561019e578235916001600160401b03831161019e576020808501948460051b01011161019e57565b9060038210156103655752565b90601f811161228057505050565b600091825260208220906020601f850160051c830194106122bc575b601f0160051c01915b8281106122b157505050565b8181556001016122a5565b909250829061229c565b8054600160401b8110156109f8576122e391600182018155611fbd565b819291549060031b91821b91600019901b1916179055565b60026000541461230c576002600055565b604051633ee5aeb560e01b8152600490fd5b6001600160401b0381116109f85760051b60200190565b9061233f8261231e565b61234c604051918261205c565b828152809261235d601f199161231e565b0190602036910137565b9190811015611fd55760051b0190565b9015611fd557803590601e198136030182121561019e5701908135916001600160401b03831161019e57602001823603811361019e579190565b9190811015611fd55760051b81013590601e198136030182121561019e5701908135916001600160401b03831161019e57602001823603811361019e579190565b8051821015611fd55760209160051b010190565b906001600160801b036124266020929594956040855260408501906121a0565b9416910152565b9092916001600160401b0381116109f85761244c81611a6f8454611feb565b6000601f8211600114612486578192939460009261247b575b50508160011b916000199060031b1c1916179055565b013590503880612465565b601f198216948382526020918281209281905b8882106124d2575050836001959697106124b8575b505050811b019055565b0135600019600384901b60f8161c191690553880806124ae565b80600184968294958701358155019501920190612499565b9190918054600160401b8110156109f85761250a91600182018155611fbd565b929092612134576120bb9261242d565b90808352602080930192838260051b850194846000925b858410612542575050505050505090565b9091929394959681810384528735601e198436030181121561019e5783018681019190356001600160401b03811161019e57803603831361019e5787828280600196849695859652848401376000828201840152601f01601f1916010199019796959190910193019190612531565b80600052600860205260ff604060002054161561037b57600081815260066020526040902060018101549091906001600160a01b03163303612c8a576003820180549060ff8216612c78576002840191825460801c8015159081612c6e575b50612c255750805460ff1980821660011783559515612c25575061010061ff00198254161790556040516001600160801b0342168152827f198a6f9f0ec29b66f4026551a0c3573f1c77f6a203ae1c4014f3abe1d112700660203393a381600052600960205260406000209182546126878161231e565b93612695604051958661205c565b818552602085019060005260206000206000915b838310612c085750505050600052600a602052604060002080546126cc8161231e565b916126da604051938461205c565b818352602083019060005260206000206000915b838310612beb575050505082519080519061270883612335565b9261271283612335565b9560005b828110612abd5750505060005b82811061298f57505050600d549460018601600d55856000526005602052604060002060018282541617905560026020526127c56040600020936bffffffffffffffffffffffff60a01b338187541617865560018060a01b03885416600187019182541617905560028501906001600160801b0342166001600160801b03198354161782555460801c6001600160801b0382549181199060801b169116179055565b600160038401918254161790558051906001600160401b0382116109f857600160401b82116109f8576004830154826004850155808310612963575b5060200160048301600052602060002060005b83811061294f57505050506005018151916001600160401b0383116109f857600160401b83116109f8578154838355808410612926575b5060200190600052602060002060005b838110612912575050505033600052600360205261287d8260406000206122c6565b546001600160a01b031660009081526004602052604090206128a09082906122c6565b60405190604082018281106001600160401b038211176109f85760405260018252602082016020368237825115611fd557527fca57b3b1173b248648c64614c4052398ff4bd93e15808282b4508d8d24dd6d736040518061290d33946001600160801b0342169083612406565b0390a2565b60019060208451940193818401550161285b565b8260005283602060002091820191015b818110612943575061284b565b60008155600101612936565b600190602084519401938184015501612814565b6004840160005282602060002091820191015b8181106129835750612801565b60008155600101612976565b61299981836123f2565b5160208151910120806129ac83896123f2565b5280600052600c806020526129c5604060002054611feb565b156129d5575b5050600101612723565b6129df83856123f2565b51916000526020526040600020908051906001600160401b0382116109f857612a0c826109148554611feb565b602090601f8311600114612a4f5760019493929160009183612a44575b5050600019600383901b1c191690841b1790555b90386129cb565b015190503880612a29565b908360005260206000209160005b601f1985168110612aa557509183916001969594938794601f19811610612a8c575b505050811b019055612a3d565b015160001960f88460031b161c19169055388080612a7f565b91926020600181928685015181550194019201612a5d565b612ac781836123f2565b516020815191012080612ada83896123f2565b5280600052600b80602052612af3604060002054611feb565b15612b03575b5050600101612716565b612b0d83856123f2565b51916000526020526040600020908051906001600160401b0382116109f857612b3a826109148554611feb565b602090601f8311600114612b7d5760019493929160009183612b72575b5050600019600383901b1c191690841b1790555b9038612af9565b015190503880612b57565b908360005260206000209160005b601f1985168110612bd357509183916001969594938794601f19811610612bba575b505050811b019055612b6b565b015160001960f88460031b161c19169055388080612bad565b91926020600181928685015181550194019201612b8b565b600160208192612bfa8561207d565b8152019201920191906126ee565b600160208192612c178561207d565b8152019201920191906126a9565b61ffff191661020117905550604051426001600160801b031681523393509091507f04225a7a904e58aacf1cf0441873a3dc7bb4d7ed4fe2efcbdb35e3e836f43e0590602090a3565b9050421138612610565b6040516329af1d3160e21b8152600490fd5b60405163214370e760e21b8152600490fd5b9060405191828154918282526020928383019160005283600020936000905b828210612cd1575050506120bb9250038361205c565b855484526001958601958895509381019390910190612cbb565b92909260018060a01b039182600092168252600391602090838252604091828220968351808984829b54938481520190865284862092865b86828210612f8957505050612d3a9250038961205c565b81815191012092825b8851811015612f7b5783612d57828b6123f2565b518082528b8a858b600593848a5260ff938c8b86868b205416600014612e94575050868852808b8560029a8b83522097865190612d9382612025565b838a5416825260019b848d8c0154169383019384528a0154986001600160801b0398898b1690840152606083019760809a8b1c89528b015416988201981515895260048a01612de190612c9c565b9960a083019a8b5201612df390612c9c565b9060c0015251169116149283612e89575b5082612e6a575b5050612e22575b5050506001905b01975b97612d43565b5186835b612e31575b50612e12565b8151811015612e655788612e4582846123f2565b5114612e5357830183612e26565b50509a50975050505050509250509190565b612e2b565b5116801591508115612e7f575b503880612e0b565b9050421038612e77565b511515925038612e04565b929093958560019a999a998a8652209760c0875191612eb283612025565b858b541693848452868d8d015416809885015260028c0154996001600160801b038b16908501526080998a1c9a8b60608601528c0154161515809984015260048b01549a8b60a0850152015491015215612f6a5716149384612f60575b505082612f58575b5081612f3c575b50612f2d575050600190612e19565b9a509850949650505050505050565b801591508115612f4e575b5038612f1e565b9050421038612f47565b915038612f17565b1492508938612f0f565b505050505050509190500197612e1c565b505050955050925050508190565b855484526001958601958e955093019201612d23565b600090808252600560205260409060ff828420541660001461304f57825260026020528082208151612fd081612025565b60018060a01b039081835416815281600184015416602082015261302a60056002850154946001600160801b039687871690850152606084019560801c865260ff60038201541615156080850152610e7060048201612c9c565b60c082015251161561304a5751169081156130455750421190565b905090565b505090565b5090600160205281812091805161306581612025565b60c0600560018060a01b0393848754169485855260018801541660208501526002870154906001600160801b0382169085015260801c9586606085015260ff60038201541615156080850152600481015460a08501520154910152156130455781156130455750421190565b60001981146114b0576001019056fe1ca2791ef43e37d008d9364d74b43173de36abb4d22624da8d11d2bb8219a95da264697066735822122058d985888b2d88fa60eb95a58d73b73aec7410d843d60816b162fb735b21f1e464736f6c63430008140033",
  "linkReferences": {},
  "deployedLinkReferences": {}
}