{
  "_format": "hh-sol-artifact-1",
  "contractName": "PatientConsentManager",
  "sourceName": "contracts/PatientConsentManager.sol",
  "abi": [
    {
      "inputs": [],
      "stateMutability": "nonpayable",
      "type": "constructor"
    },
    {
      "inputs": [],
      "name": "CannotGrantConsentToSelf",
      "type": "error"
    },
    {
      "inputs": [],
      "name": "CannotRequestAccessFromSelf",
      "type": "error"
    },
    {
      "inputs": [],
      "name": "ConsentAlreadyInactive",
      "type": "error"
    },
    {
      "inputs": [],
      "name": "ConsentNotFound",
      "type": "error"
    },
    {
      "inputs": [],
      "name": "EmptyBatch",
      "type": "error"
    },
    {
      "inputs": [],
      "name": "EmptyString",
      "type": "error"
    },
    {
      "inputs": [],
      "name": "ExpirationInPast",
      "type": "error"
    },
    {
      "inputs": [],
      "name": "InvalidAddress",
      "type": "error"
    },
    {
      "inputs": [],
      "name": "ReentrancyGuardReentrantCall",
      "type": "error"
    },
    {
      "inputs": [],
      "name": "RequestAlreadyProcessed",
      "type": "error"
    },
    {
      "inputs": [],
      "name": "RequestNotFound",
      "type": "error"
    },
    {
      "inputs": [],
      "name": "StringTooLong",
      "type": "error"
    },
    {
      "inputs": [],
      "name": "UnauthorizedResponse",
      "type": "error"
    },
    {
      "inputs": [],
      "name": "UnauthorizedRevocation",
      "type": "error"
    },
    {
      "anonymous": false,
      "inputs": [
        {
          "indexed": true,
          "internalType": "uint256",
          "name": "requestId",
          "type": "uint256"
        },
        {
          "indexed": true,
          "internalType": "address",
          "name": "patient",
          "type": "address"
        },
        {
          "indexed": false,
          "internalType": "uint128",
          "name": "timestamp",
          "type": "uint128"
        }
      ],
      "name": "AccessApproved",
      "type": "event"
    },
    {
      "anonymous": false,
      "inputs": [
        {
          "indexed": true,
          "internalType": "uint256",
          "name": "requestId",
          "type": "uint256"
        },
        {
          "indexed": true,
          "internalType": "address",
          "name": "patient",
          "type": "address"
        },
        {
          "indexed": false,
          "internalType": "uint128",
          "name": "timestamp",
          "type": "uint128"
        }
      ],
      "name": "AccessDenied",
      "type": "event"
    },
    {
      "anonymous": false,
      "inputs": [
        {
          "indexed": true,
          "internalType": "uint256",
          "name": "requestId",
          "type": "uint256"
        },
        {
          "indexed": true,
          "internalType": "address",
          "name": "requester",
          "type": "address"
        },
        {
          "indexed": true,
          "internalType": "address",
          "name": "patient",
          "type": "address"
        },
        {
          "indexed": false,
          "internalType": "string[]",
          "name": "dataTypes",
          "type": "string[]"
        },
        {
          "indexed": false,
          "internalType": "string[]",
          "name": "purposes",
          "type": "string[]"
        },
        {
          "indexed": false,
          "internalType": "uint128",
          "name": "expirationTime",
          "type": "uint128"
        },
        {
          "indexed": false,
          "internalType": "uint128",
          "name": "timestamp",
          "type": "uint128"
        }
      ],
      "name": "AccessRequested",
      "type": "event"
    },
    {
      "anonymous": false,
      "inputs": [
        {
          "indexed": true,
          "internalType": "address",
          "name": "patient",
          "type": "address"
        },
        {
          "indexed": false,
          "internalType": "uint256[]",
          "name": "consentIds",
          "type": "uint256[]"
        },
        {
          "indexed": false,
          "internalType": "uint128",
          "name": "timestamp",
          "type": "uint128"
        }
      ],
      "name": "ConsentBatchGranted",
      "type": "event"
    },
    {
      "anonymous": false,
      "inputs": [
        {
          "indexed": true,
          "internalType": "uint256",
          "name": "consentId",
          "type": "uint256"
        },
        {
          "indexed": true,
          "internalType": "address",
          "name": "patient",
          "type": "address"
        },
        {
          "indexed": false,
          "internalType": "uint128",
          "name": "timestamp",
          "type": "uint128"
        }
      ],
      "name": "ConsentExpired",
      "type": "event"
    },
    {
      "anonymous": false,
      "inputs": [
        {
          "indexed": true,
          "internalType": "uint256",
          "name": "consentId",
          "type": "uint256"
        },
        {
          "indexed": true,
          "internalType": "address",
          "name": "patient",
          "type": "address"
        },
        {
          "indexed": true,
          "internalType": "address",
          "name": "provider",
          "type": "address"
        },
        {
          "indexed": false,
          "internalType": "bytes32",
          "name": "dataTypeHash",
          "type": "bytes32"
        },
        {
          "indexed": false,
          "internalType": "uint128",
          "name": "expirationTime",
          "type": "uint128"
        },
        {
          "indexed": false,
          "internalType": "bytes32",
          "name": "purposeHash",
          "type": "bytes32"
        },
        {
          "indexed": false,
          "internalType": "uint128",
          "name": "timestamp",
          "type": "uint128"
        }
      ],
      "name": "ConsentGranted",
      "type": "event"
    },
    {
      "anonymous": false,
      "inputs": [
        {
          "indexed": true,
          "internalType": "uint256",
          "name": "consentId",
          "type": "uint256"
        },
        {
          "indexed": true,
          "internalType": "address",
          "name": "patient",
          "type": "address"
        },
        {
          "indexed": false,
          "internalType": "uint128",
          "name": "timestamp",
          "type": "uint128"
        }
      ],
      "name": "ConsentRevoked",
      "type": "event"
    },
    {
      "inputs": [
        {
          "internalType": "uint256",
          "name": "",
          "type": "uint256"
        }
      ],
      "name": "accessRequests",
      "outputs": [
        {
          "internalType": "address",
          "name": "requester",
          "type": "address"
        },
        {
          "internalType": "address",
          "name": "patientAddress",
          "type": "address"
        },
        {
          "internalType": "uint128",
          "name": "timestamp",
          "type": "uint128"
        },
        {
          "internalType": "uint128",
          "name": "expirationTime",
          "type": "uint128"
        },
        {
          "internalType": "bool",
          "name": "isProcessed",
          "type": "bool"
        },
        {
          "internalType": "enum PatientConsentManager.RequestStatus",
          "name": "status",
          "type": "uint8"
        },
        {
          "internalType": "string",
          "name": "dataType",
          "type": "string"
        },
        {
          "internalType": "string",
          "name": "purpose",
          "type": "string"
        }
      ],
      "stateMutability": "view",
      "type": "function"
    },
    {
      "inputs": [
        {
          "internalType": "uint256",
          "name": "",
          "type": "uint256"
        }
      ],
      "name": "batchConsentRecords",
      "outputs": [
        {
          "internalType": "address",
          "name": "patientAddress",
          "type": "address"
        },
        {
          "internalType": "address",
          "name": "providerAddress",
          "type": "address"
        },
        {
          "internalType": "uint128",
          "name": "timestamp",
          "type": "uint128"
        },
        {
          "internalType": "uint128",
          "name": "expirationTime",
          "type": "uint128"
        },
        {
          "internalType": "bool",
          "name": "isActive",
          "type": "bool"
        }
      ],
      "stateMutability": "view",
      "type": "function"
    },
    {
      "inputs": [
        {
          "internalType": "address",
          "name": "patient",
          "type": "address"
        }
      ],
      "name": "checkAndExpireConsents",
      "outputs": [
        {
          "internalType": "uint256",
          "name": "expiredCount",
          "type": "uint256"
        }
      ],
      "stateMutability": "nonpayable",
      "type": "function"
    },
    {
      "inputs": [],
      "name": "consentCounter",
      "outputs": [
        {
          "internalType": "uint256",
          "name": "",
          "type": "uint256"
        }
      ],
      "stateMutability": "view",
      "type": "function"
    },
    {
      "inputs": [
        {
          "internalType": "uint256",
          "name": "",
          "type": "uint256"
        }
      ],
      "name": "consentRecords",
      "outputs": [
        {
          "internalType": "address",
          "name": "patientAddress",
          "type": "address"
        },
        {
          "internalType": "address",
          "name": "providerAddress",
          "type": "address"
        },
        {
          "internalType": "uint128",
          "name": "timestamp",
          "type": "uint128"
        },
        {
          "internalType": "uint128",
          "name": "expirationTime",
          "type": "uint128"
        },
        {
          "internalType": "bool",
          "name": "isActive",
          "type": "bool"
        },
        {
          "internalType": "bytes32",
          "name": "dataTypeHash",
          "type": "bytes32"
        },
        {
          "internalType": "bytes32",
          "name": "purposeHash",
          "type": "bytes32"
        }
      ],
      "stateMutability": "view",
      "type": "function"
    },
    {
      "inputs": [
        {
          "internalType": "bytes32",
          "name": "",
          "type": "bytes32"
        }
      ],
      "name": "dataTypeHashToString",
      "outputs": [
        {
          "internalType": "string",
          "name": "",
          "type": "string"
        }
      ],
      "stateMutability": "view",
      "type": "function"
    },
    {
      "inputs": [
        {
          "internalType": "uint256",
          "name": "requestId",
          "type": "uint256"
        }
      ],
      "name": "getAccessRequest",
      "outputs": [
        {
          "components": [
            {
              "internalType": "address",
              "name": "requester",
              "type": "address"
            },
            {
              "internalType": "address",
              "name": "patientAddress",
              "type": "address"
            },
            {
              "internalType": "uint128",
              "name": "timestamp",
              "type": "uint128"
            },
            {
              "internalType": "uint128",
              "name": "expirationTime",
              "type": "uint128"
            },
            {
              "internalType": "bool",
              "name": "isProcessed",
              "type": "bool"
            },
            {
              "internalType": "enum PatientConsentManager.RequestStatus",
              "name": "status",
              "type": "uint8"
            },
            {
              "internalType": "string",
              "name": "dataType",
              "type": "string"
            },
            {
              "internalType": "string",
              "name": "purpose",
              "type": "string"
            }
          ],
          "internalType": "struct PatientConsentManager.AccessRequest",
          "name": "",
          "type": "tuple"
        }
      ],
      "stateMutability": "view",
      "type": "function"
    },
    {
      "inputs": [
        {
          "internalType": "uint256",
          "name": "consentId",
          "type": "uint256"
        }
      ],
      "name": "getBatchConsentRecord",
      "outputs": [
        {
          "components": [
            {
              "internalType": "address",
              "name": "patientAddress",
              "type": "address"
            },
            {
              "internalType": "address",
              "name": "providerAddress",
              "type": "address"
            },
            {
              "internalType": "uint128",
              "name": "timestamp",
              "type": "uint128"
            },
            {
              "internalType": "uint128",
              "name": "expirationTime",
              "type": "uint128"
            },
            {
              "internalType": "bool",
              "name": "isActive",
              "type": "bool"
            },
            {
              "internalType": "bytes32[]",
              "name": "dataTypeHashes",
              "type": "bytes32[]"
            },
            {
              "internalType": "bytes32[]",
              "name": "purposeHashes",
              "type": "bytes32[]"
            }
          ],
          "internalType": "struct PatientConsentManager.BatchConsentRecord",
          "name": "",
          "type": "tuple"
        }
      ],
      "stateMutability": "view",
      "type": "function"
    },
    {
      "inputs": [
        {
          "internalType": "uint256",
          "name": "consentId",
          "type": "uint256"
        }
      ],
      "name": "getConsentRecord",
      "outputs": [
        {
          "components": [
            {
              "internalType": "address",
              "name": "patientAddress",
              "type": "address"
            },
            {
              "internalType": "address",
              "name": "providerAddress",
              "type": "address"
            },
            {
              "internalType": "uint128",
              "name": "timestamp",
              "type": "uint128"
            },
            {
              "internalType": "uint128",
              "name": "expirationTime",
              "type": "uint128"
            },
            {
              "internalType": "bool",
              "name": "isActive",
              "type": "bool"
            },
            {
              "internalType": "bytes32",
              "name": "dataTypeHash",
              "type": "bytes32"
            },
            {
              "internalType": "bytes32",
              "name": "purposeHash",
              "type": "bytes32"
            }
          ],
          "internalType": "struct PatientConsentManager.ConsentRecord",
          "name": "",
          "type": "tuple"
        }
      ],
      "stateMutability": "view",
      "type": "function"
    },
    {
      "inputs": [
        {
          "internalType": "address",
          "name": "patient",
          "type": "address"
        }
      ],
      "name": "getExpiredConsents",
      "outputs": [
        {
          "internalType": "uint256[]",
          "name": "expiredIds",
          "type": "uint256[]"
        }
      ],
      "stateMutability": "view",
      "type": "function"
    },
    {
      "inputs": [
        {
          "internalType": "address",
          "name": "patient",
          "type": "address"
        }
      ],
      "name": "getPatientConsents",
      "outputs": [
        {
          "internalType": "uint256[]",
          "name": "",
          "type": "uint256[]"
        }
      ],
      "stateMutability": "view",
      "type": "function"
    },
    {
      "inputs": [
        {
          "internalType": "address",
          "name": "patient",
          "type": "address"
        }
      ],
      "name": "getPatientRequests",
      "outputs": [
        {
          "internalType": "uint256[]",
          "name": "",
          "type": "uint256[]"
        }
      ],
      "stateMutability": "view",
      "type": "function"
    },
    {
      "inputs": [
        {
          "internalType": "address",
          "name": "provider",
          "type": "address"
        },
        {
          "internalType": "string",
          "name": "dataType",
          "type": "string"
        },
        {
          "internalType": "uint256",
          "name": "expirationTime",
          "type": "uint256"
        },
        {
          "internalType": "string",
          "name": "purpose",
          "type": "string"
        }
      ],
      "name": "grantConsent",
      "outputs": [
        {
          "internalType": "uint256",
          "name": "consentId",
          "type": "uint256"
        }
      ],
      "stateMutability": "nonpayable",
      "type": "function"
    },
    {
      "inputs": [
        {
          "internalType": "address[]",
          "name": "providers",
          "type": "address[]"
        },
        {
          "internalType": "string[]",
          "name": "dataTypes",
          "type": "string[]"
        },
        {
          "internalType": "uint256[]",
          "name": "expirationTimes",
          "type": "uint256[]"
        },
        {
          "internalType": "string[]",
          "name": "purposes",
          "type": "string[]"
        }
      ],
      "name": "grantConsentBatch",
      "outputs": [
        {
          "internalType": "uint256[]",
          "name": "consentIds",
          "type": "uint256[]"
        }
      ],
      "stateMutability": "nonpayable",
      "type": "function"
    },
    {
      "inputs": [
        {
          "internalType": "address",
          "name": "patient",
          "type": "address"
        },
        {
          "internalType": "address",
          "name": "provider",
          "type": "address"
        },
        {
          "internalType": "string",
          "name": "dataType",
          "type": "string"
        }
      ],
      "name": "hasActiveConsent",
      "outputs": [
        {
          "internalType": "bool",
          "name": "hasConsent",
          "type": "bool"
        },
        {
          "internalType": "uint256",
          "name": "consentId",
          "type": "uint256"
        }
      ],
      "stateMutability": "view",
      "type": "function"
    },
    {
      "inputs": [
        {
          "internalType": "uint256",
          "name": "",
          "type": "uint256"
        }
      ],
      "name": "isBatchConsent",
      "outputs": [
        {
          "internalType": "bool",
          "name": "",
          "type": "bool"
        }
      ],
      "stateMutability": "view",
      "type": "function"
    },
    {
      "inputs": [
        {
          "internalType": "uint256",
          "name": "consentId",
          "type": "uint256"
        }
      ],
      "name": "isConsentExpired",
      "outputs": [
        {
          "internalType": "bool",
          "name": "expired",
          "type": "bool"
        }
      ],
      "stateMutability": "view",
      "type": "function"
    },
    {
      "inputs": [
        {
          "internalType": "address",
          "name": "",
          "type": "address"
        },
        {
          "internalType": "uint256",
          "name": "",
          "type": "uint256"
        }
      ],
      "name": "patientConsents",
      "outputs": [
        {
          "internalType": "uint256",
          "name": "",
          "type": "uint256"
        }
      ],
      "stateMutability": "view",
      "type": "function"
    },
    {
      "inputs": [
        {
          "internalType": "address",
          "name": "",
          "type": "address"
        },
        {
          "internalType": "uint256",
          "name": "",
          "type": "uint256"
        }
      ],
      "name": "patientRequests",
      "outputs": [
        {
          "internalType": "uint256",
          "name": "",
          "type": "uint256"
        }
      ],
      "stateMutability": "view",
      "type": "function"
    },
    {
      "inputs": [
        {
          "internalType": "address",
          "name": "",
          "type": "address"
        },
        {
          "internalType": "uint256",
          "name": "",
          "type": "uint256"
        }
      ],
      "name": "providerConsents",
      "outputs": [
        {
          "internalType": "uint256",
          "name": "",
          "type": "uint256"
        }
      ],
      "stateMutability": "view",
      "type": "function"
    },
    {
      "inputs": [
        {
          "internalType": "bytes32",
          "name": "",
          "type": "bytes32"
        }
      ],
      "name": "purposeHashToString",
      "outputs": [
        {
          "internalType": "string",
          "name": "",
          "type": "string"
        }
      ],
      "stateMutability": "view",
      "type": "function"
    },
    {
      "inputs": [
        {
          "internalType": "address",
          "name": "patient",
          "type": "address"
        },
        {
          "internalType": "string[]",
          "name": "dataTypes",
          "type": "string[]"
        },
        {
          "internalType": "string[]",
          "name": "purposes",
          "type": "string[]"
        },
        {
          "internalType": "uint256",
          "name": "expirationTime",
          "type": "uint256"
        }
      ],
      "name": "requestAccess",
      "outputs": [
        {
          "internalType": "uint256",
          "name": "requestId",
          "type": "uint256"
        }
      ],
      "stateMutability": "nonpayable",
      "type": "function"
    },
    {
      "inputs": [],
      "name": "requestCounter",
      "outputs": [
        {
          "internalType": "uint256",
          "name": "",
          "type": "uint256"
        }
      ],
      "stateMutability": "view",
      "type": "function"
    },
    {
      "inputs": [
        {
          "internalType": "uint256",
          "name": "",
          "type": "uint256"
        },
        {
          "internalType": "uint256",
          "name": "",
          "type": "uint256"
        }
      ],
      "name": "requestDataTypes",
      "outputs": [
        {
          "internalType": "string",
          "name": "",
          "type": "string"
        }
      ],
      "stateMutability": "view",
      "type": "function"
    },
    {
      "inputs": [
        {
          "internalType": "uint256",
          "name": "",
          "type": "uint256"
        },
        {
          "internalType": "uint256",
          "name": "",
          "type": "uint256"
        }
      ],
      "name": "requestPurposes",
      "outputs": [
        {
          "internalType": "string",
          "name": "",
          "type": "string"
        }
      ],
      "stateMutability": "view",
      "type": "function"
    },
    {
      "inputs": [
        {
          "internalType": "uint256",
          "name": "requestId",
          "type": "uint256"
        },
        {
          "internalType": "bool",
          "name": "approved",
          "type": "bool"
        }
      ],
      "name": "respondToAccessRequest",
      "outputs": [],
      "stateMutability": "nonpayable",
      "type": "function"
    },
    {
      "inputs": [
        {
          "internalType": "uint256",
          "name": "consentId",
          "type": "uint256"
        }
      ],
      "name": "revokeConsent",
      "outputs": [],
      "stateMutability": "nonpayable",
      "type": "function"
    }
  ],
  "bytecode": "0x608080604052346100255760016000556000600d556000600e556131ba908161002b8239f35b600080fdfe610140604052600436101561001357600080fd5b60003560e01c8063050f8ad614611ff55780630c8f946314611fcd57806316a0042c14611e9457806317bf30d914611e685780632492438514611df15780632c06b5a114611d8a5780632eda527514611c6d5780633217bc7214611c23578063483424051461181e57806348a361ba146117ed5780634cc56e2a1461177e5780634fdf4d5114611725578063650163f1146114d95780636e37654e146111b057806375aef19714610d6e5780637decccbf14610ce357806381581c6014610cab5780638ca91a9a14610bec5780638cbb952414610bce5780638edf9214146105d55780638f1bc4831461046c578063918e08eb146103e7578063973a814e146103c95780639c4f0dc51461038d578063ee12bc71146101e7578063f2607bd4146101a35763f683ab9d1461014657600080fd5b3461019e57604036600319011261019e5761015f61220e565b6001600160a01b031660009081526004602052604090208054602435919082101561019e5760209161019091612041565b90546040519160031b1c8152f35b600080fd5b3461019e57602036600319011261019e57600435600052600c6020526101e36101cf6040600020612101565b6040519182916020835260208301906121ce565b0390f35b3461019e5760208060031936011261019e57600435606060e060405161020c816120c4565b600081526000858201526000604082015260008382015260006080820152600060a08201528260c08201520152806000526008825260ff604060002054161561037b5760005260068152604060002060405190610268826120c4565b60018060a01b03918282541681528260018301541684820190815260028301549060408301936001600160801b038084168652606085019360801c845260038201549060ff60808701928181161515845260081c169460a08701936003871015610365576101e3988a610339976102f9600587958d9c8b5260c06102ee60048301612101565b9d019c8d5201612101565b9a60e081019b8c526040519e8f9e8f928284525116910152511660408c0152511660608a01525116608088015251151560a08701525160c08601906122e9565b51610352610100918260e08701526101208601906121ce565b915190601f1985840301908501526121ce565b634e487b7160e01b600052602160045260246000fd5b604051632589d98f60e11b8152600490fd5b3461019e5761039b3661202b565b90600052600a602052604060002090815481101561019e576103c36101cf916101e393612041565b906121a7565b3461019e57600036600319011261019e576020600e54604051908152f35b3461019e57602036600319011261019e57600435600052600160205260e0604060002060018060a01b0390818154169160018201541690600281015460ff60038301541690600560048401549301549360405195865260208601526001600160801b038116604086015260801c60608501521515608084015260a083015260c0820152f35b3461019e5760208060031936011261019e57600435606060c0604051610491816120a9565b6000815260008582015260006040820152600083820152600060808201528260a08201520152806000526005825260ff60406000205416156105c35760005260028152604060002090604051916104e7836120a9565b60018060a01b03808254168452806001830154169083850191825260028301549260408601936001600160801b038082168652606088019160801c825260ff60038401541691608089019215158352610555600561054760048701612d20565b9560a08c0196875201612d20565b9560c08a01968752858a5116156105c3576101e3978684928b6105b0996040519e8f9e8f525116908d0152511660408b0152511660608901525116608087015251151560a08601525160e060c0860152610100850190612224565b9051838203601f190160e0850152612224565b6040516310a4d3b360e21b8152600490fd5b3461019e57608036600319011261019e576004356001600160401b03811161019e576106059036906004016122b9565b6024356001600160401b03811161019e576106249036906004016122b9565b6101005260a0526044356001600160401b03811161019e5761064a9036906004016122b9565b9060c0526064356001600160401b03811161019e5761066d9036906004016122b9565b939060805261067a61237f565b8215610ba85760c88311610ba857610100518314801590610bc4575b8015610bba575b610ba8576106aa836123b9565b60e052600d546000610120525b6101205184811015610b48576106ce9085846123eb565b356001600160a01b038116810361019e576106f2610120516101005160a051612435565b909161072e610707610120518860c0516123eb565b359261072661071c610120518c608051612435565b9690923691612258565b943691612258565b906001600160a01b03811615610b36576001600160a01b0381163314610b2457835115610b1257610100845111610b0057815115610b1257610100825111610b005782151580610af7575b610ae5578351602085012091805160208201209483600052600b806020526107a560406000205461206f565b15610a0f575b505084600052600c806020526107c560406000205461206f565b156108e9575b505060008581526001602081905260409091208054336001600160a01b031991821617825581830180546001600160a01b03861692169190911790556001600160801b034281166001600160801b0319608088901b161760028301559196959491909116928592600080516020613165833981519152928660056003928381018c60ff1982541617905585600482015501553360005260205261087284604060002061234a565b878060a01b038116600052600460205261089084604060002061234a565b604080519283526001600160801b03958616602084015282019590955242909316606084015260a086901b869003909316923392608090a4806108d86101205160e051612476565b5261012080516001019052016106b7565b856000526020526040600020908051906001600160401b0382116109f95761091b82610915855461206f565b856122f6565b602090601f8311600114610977579282899897969360019a96936000805160206131658339815191529660009261096c575b5050600019600383901b1c1916908a1b1790555b9250929394956107cb565b015190508f8061094d565b908360005260206000209160005b601f19851681106109e1575092899897969392600080516020613165833981519152959260019b979483601f198116106109c8575b505050891b89019055610961565b015160001960f88460031b161c191690558e80806109ba565b91926020600181928685015181550194019201610985565b634e487b7160e01b600052604160045260246000fd5b846000526020526040600020908051906001600160401b0382116109f9578190610a4382610a3d865461206f565b866122f6565b602090601f8311600114610a8057600092610a75575b50508160011b916000199060031b1c19161790555b8a806107ab565b015190508d80610a59565b60008581526020812093505b601f1985168110610acd575083601f19811610610ab4575b505050600190811b019055610a6e565b015160001960f88460031b161c191690558c8080610aa4565b91926020600181928685015181550194019201610a8c565b6040516317464c7d60e31b8152600490fd5b50428310610779565b604051631623655b60e31b8152600490fd5b60405163ecd7b0d160e01b8152600490fd5b60405163300e13e960e01b8152600490fd5b60405163e6c4247b60e01b8152600490fd5b50600d556040517fca57b3b1173b248648c64614c4052398ff4bd93e15808282b4508d8d24dd6d73339180610b896001600160801b03421660e0518361248a565b0390a2600160005560405160208152806101e36020820160e051612224565b60405163c2e5347d60e01b8152600490fd5b508383141561069d565b5081831415610696565b3461019e57600036600319011261019e576020600d54604051908152f35b3461019e57602036600319011261019e576004356000526006602052604060002060018060a01b036101e3818354169160018401541692610c9d600282015491610c8c6003820154610c4c6005610c4560048601612101565b9401612101565b94604051988998895260208901526001600160801b038116604089015260801c606088015260ff81161515608088015260ff60a088019160081c166122e9565b6101008060c08701528501906121ce565b9083820360e08501526121ce565b3461019e57604036600319011261019e57602435801515810361019e57610cdc90610cd461237f565b600435612635565b6001600055005b3461019e5760208060031936011261019e576001600160a01b03610d0561220e565b1660005260078152604060002090604051808383829554938481520190600052836000209260005b85828210610d5857505050610d44925003836120e0565b6101e3604051928284938452830190612224565b8554845260019586019588955093019201610d2d565b3461019e5760208060031936011261019e576001600160a01b0380610d9161220e565b166000526003808352604060002092604051808583829754938481520190600052836000209260005b8582821061119a57505050610dd1925003856120e0565b60009160005b8551811015610fa157610dea8187612476565b518060005260059081855260ff908160406000205416600014610ee557600052600280865287604060002091610e7c60405191610e26836120a9565b838554168352836001860154168a840152840154956001600160801b039485881660408501526060840196608098891c88528a820154169784019715158852610e7160048201612d20565b60a085015201612d20565b60c0820152511615159283610eda575b5082610ecd575b82610ebe575b5050610eaa575b6001905b01610dd7565b92610eb6600191613155565b939050610ea0565b90915042915116108780610e99565b8151811615159250610e93565b511515925089610e8c565b50600180865260406000209260c060405191610f00836120a9565b8a808754169485855287015416898401526002860154956001600160801b0387166040850152608096871c95866060860152898201541615158097850152600481015460a0850152015491015215159182610f99575b5081610f8f575b81610f85575b50610f71575b600190610ea4565b92610f7d600191613155565b939050610f69565b9050421187610f63565b8015159150610f5d565b915088610f56565b509091610fad906123b9565b9060009160005b865181101561118457610fc78188612476565b518060005260059081875260ff9182604060002054166000146110c1578160005260029283895260406000208a604051611000816120a9565b8183541681526110516001978d848a8701541690840152840154956001600160801b039485881660408501526060840196608098891c88528d820154169784019715158852610e7160048201612d20565b60c08201525116151592836110b6575b50826110a9575b8261109a575b5050611081575b50506001905b01610fb4565b94600192956110908286612476565b5201939088611075565b90915042915116108a8061106e565b8151811615159250611068565b51151592508c611061565b6001928389526040600020916040516110d9816120a9565b60c08c855416928383528d88870154168d8401526002860154956001600160801b0387166040850152608096871c958660608601528c8201541615158097850152600481015460a085015201549101521515918261117c575b5081611172575b81611168575b5061114f575b505060019061107b565b946001929561115e8286612476565b5201939088611145565b905042118a61113f565b8015159150611139565b91508b611132565b50836101e3604051928284938452830190612224565b855484526001958601958a955093019201610dba565b3461019e57608036600319011261019e576111c961220e565b6001600160401b0360243581811161019e576111e99036906004016122b9565b92909160443590811161019e576112049036906004016122b9565b9390916064359061121361237f565b6001600160a01b0316918215610b36573383146114c7578015610ba8578515610ba85785810281810487036114b15760c810610ba857811515806114a8575b610ae55793929460005b858110611470575060005b8181106114385750600e8054600180820190925560008181526006602090815260409091208054336001600160a01b03199182161782558185018054909116881790556001600160801b034281166001600160801b0319608089901b1681176002840155929a93999498961695899493916113169060059060038101805461ffff191690556113036112f988866123fb565b90600484016124b1565b61130d89866123fb565b929091016124b1565b8460005260098b528a6040600020600a82526040600020908b60005b88811061140d5750905060005b8981106113dd57505050956113b46113c19392600788997f41ada9f1b046024c0b89c1b73503298cb8f2ba7284029ca53d4d451da00463a999600052600881528d60406000209060ff198254161790558c600052526113a289604060002061234a565b6040519660808852608088019161259e565b918583038d87015261259e565b94604083015260608201528033940390a4600055604051908152f35b919394969895975091506113fc6113f5828789612435565b908561256e565b01908b908a8c97959896949361133f565b91935091939496989597506114266113f5828b88612435565b0190918b9694979593928b8e93611332565b61144781838997989499612435565b905015610b125761010061145c828988612435565b905011610b00576001019590949395611267565b61147f81878798949997612435565b905015610b1257610100611494828489612435565b905011610b0057600101959094939561125c565b50428210611252565b634e487b7160e01b600052601160045260246000fd5b604051630feebe7b60e11b8152600490fd5b3461019e5760208060031936011261019e576114f361220e565b6114fb61237f565b60018060a01b0380911680600052600392838152604060002092604051808584829754938481520190600052846000209260005b8682821061170f57505050611546925003856120e0565b60009160005b85518110156117015761155f8187612476565b5180600052600583528560ff806040600020541660001461164257826000526002908186526040600020918783541615611634578b83019283549283169182611624575b82611612575b50506115c1575b505050506001905b01945b9461154c565b966115d691600195949860ff19169055613155565b957fb5b903153191aa84155c6e2437f874bfb63e5fec95ecbf5222a1f8a241292596856040516001600160801b0342168152a3908589806115b0565b9091504291015460801c108c806115a9565b8181015460801c151592506115a3565b5050505050600101946115bb565b60019081865260406000209187835416156116f457508a820191825491821690816116e3575b816116d1575b50611680575b505050506001906115b8565b9661169591600195949860ff19169055613155565b957fb5b903153191aa84155c6e2437f874bfb63e5fec95ecbf5222a1f8a241292596856040516001600160801b0342168152a390858980611674565b905060024291015460801c108c61166e565b600281015460801c15159150611668565b94935050505001946115bb565b506001600055604051838152f35b855484526001958601958a95509301920161152f565b3461019e57604036600319011261019e5761173e61220e565b6001600160a01b031660009081526003602052604090208054602435919082101561019e5760209161176f91612041565b90549060031b1c604051908152f35b3461019e57602036600319011261019e57600435600052600260205260a06040600020600180831b039081815416916001820154169060ff60036002830154920154169160405193845260208401526001600160801b038116604084015260801c606083015215156080820152f35b3461019e57602036600319011261019e576004356000526005602052602060ff604060002054166040519015158152f35b3461019e57608036600319011261019e5761183761220e565b6024356001600160401b03811161019e5761185690369060040161229e565b906064356001600160401b03811161019e5761187690369060040161229e565b9061187f61237f565b6001600160a01b03811615610b3657825115610b125761010080845111610b0057825115610b1257825111610b00576001600160a01b0381163314610b2457604435151580611c18575b610ae557600d549160018301600d558351602085012090805160208201209482600052600b6020526118ff60406000205461206f565b15611b40575b5084600052600c60205261191d60406000205461206f565b15611a3d575b50600083815260016020818152604090922080546001600160a01b03199081163317825591810180549092166001600160a01b03861617909155604435608081901b6001600160801b031916426001600160801b03908116918217600285015593979190931694869360008051602061316583398151915293611a2d9190849060059060038101600160ff1982541617905589600482015501553360005260038a526119d386604060002061234a565b60018060a01b03831660005260048a526119f186604060002061234a565b604080519788526001600160801b0398891660208901528701939093529590911660608501526001600160a01b03169333939081906080820190565b0390a46001600055604051908152f35b84600052600c6020526040600020948151906001600160401b0382116109f9578682611a768894611a7060209b5461206f565b846122f6565b8894601f8211600114611ac65760008051602061316583398151915294958291600092611abb575b50508160011b916000199060031b1c19161790555b955050611923565b015190508a80611a9e565b82600052896000209060005b601f1984168110611b2657509060008051602061316583398151915295968392600194601f19811610611b0d575b505050811b019055611ab3565b015160001960f88460031b161c191690558a8080611b00565b818801518355968b01968a96506001909201918b01611ad2565b82600052600b6020526040600020908051906001600160401b0382116109f9578190611b7082610a3d865461206f565b602090601f8311600114611bac57600092611ba1575b50508160011b916000199060031b1c19161790555b85611905565b015190508880611b86565b9250836000526020600020906000935b601f1984168510611bfd576001945083601f19811610611be4575b505050811b019055611b9b565b015160001960f88460031b161c19169055888080611bd7565b81810151835560209485019460019093019290910190611bbc565b5042604435106118c9565b3461019e57604036600319011261019e57611c3c61220e565b6001600160a01b031660009081526007602052604090208054602435919082101561019e5760209161019091612041565b3461019e5760208060031936011261019e57600435600060c0604051611c92816120a9565b82815282858201528260408201528260608201528260808201528260a08201520152806000526005825260ff604060002054166105c3576000526001815260406000209060405190611ce3826120a9565b60018060a01b0392838154169182845284600183015416818501908152600283015460408601916001600160801b03928383168152606088019260801c835260ff60038701541694608089019515158652600560048801549760a08b0198895201549760c08a01988952156105c35789859360e09b6040519b51168b52511690890152511660408701525116606085015251151560808401525160a08301525160c0820152f35b3461019e57606036600319011261019e57611da361220e565b602435906001600160a01b038216820361019e57604435906001600160401b03821161019e57604092611ddd611de393369060040161229e565b91612d6f565b825191151582526020820152f35b3461019e5760208060031936011261019e576001600160a01b03611e1361220e565b1660005260038152604060002090604051808383829554938481520190600052836000209260005b85828210611e5257505050610d44925003836120e0565b8554845260019586019588955093019201611e3b565b3461019e57602036600319011261019e57600435600052600b6020526101e36101cf6040600020612101565b3461019e5760208060031936011261019e57600435611eb161237f565b806000526005825260ff60406000205416600014611f60576000818152600283526040902080546001600160a01b031680156105c3573303611f4e57600301805460ff811615611f3c5760ff19169055604051426001600160801b0316815233927f2036d4d0b3411dda9fdee7701d19fff8681b6140d2e21b91b44057e4d2ae4cc291a36001600055005b604051636f7f1c7360e11b8152600490fd5b604051630feaf7d560e31b8152600490fd5b60018252604060002080546001600160a01b031680156105c3573303611f4e57600301805460ff811615611f3c5760ff19169055604051426001600160801b0316815233927f2036d4d0b3411dda9fdee7701d19fff8681b6140d2e21b91b44057e4d2ae4cc291a3610cdc565b3461019e57602036600319011261019e576020611feb600435613023565b6040519015158152f35b3461019e576120033661202b565b906000526009602052604060002090815481101561019e576103c36101cf916101e393612041565b604090600319011261019e576004359060243590565b80548210156120595760005260206000200190600090565b634e487b7160e01b600052603260045260246000fd5b90600182811c9216801561209f575b602083101461208957565b634e487b7160e01b600052602260045260246000fd5b91607f169161207e565b60e081019081106001600160401b038211176109f957604052565b61010081019081106001600160401b038211176109f957604052565b90601f801991011681019081106001600160401b038211176109f957604052565b90604051918260008254926121158461206f565b9081845260019485811690816000146121845750600114612141575b505061213f925003836120e0565b565b9093915060005260209081600020936000915b81831061216c57505061213f93508201013880612131565b85548884018501529485019487945091830191612154565b91505061213f94506020925060ff191682840152151560051b8201013880612131565b906121b8576121b590612101565b90565b634e487b7160e01b600052600060045260246000fd5b919082519283825260005b8481106121fa575050826000602080949584010152601f8019910116010190565b6020818301810151848301820152016121d9565b600435906001600160a01b038216820361019e57565b90815180825260208080930193019160005b828110612244575050505090565b835185529381019392810192600101612236565b9291926001600160401b0382116109f95760405191612281601f8201601f1916602001846120e0565b82948184528183011161019e578281602093846000960137010152565b9080601f8301121561019e578160206121b593359101612258565b9181601f8401121561019e578235916001600160401b03831161019e576020808501948460051b01011161019e57565b9060038210156103655752565b90601f811161230457505050565b600091825260208220906020601f850160051c83019410612340575b601f0160051c01915b82811061233557505050565b818155600101612329565b9092508290612320565b8054600160401b8110156109f95761236791600182018155612041565b819291549060031b91821b91600019901b1916179055565b600260005414612390576002600055565b604051633ee5aeb560e01b8152600490fd5b6001600160401b0381116109f95760051b60200190565b906123c3826123a2565b6123d060405191826120e0565b82815280926123e1601f19916123a2565b0190602036910137565b91908110156120595760051b0190565b901561205957803590601e198136030182121561019e5701908135916001600160401b03831161019e57602001823603811361019e579190565b91908110156120595760051b81013590601e198136030182121561019e5701908135916001600160401b03831161019e57602001823603811361019e579190565b80518210156120595760209160051b010190565b906001600160801b036124aa602092959495604085526040850190612224565b9416910152565b9092916001600160401b0381116109f9576124d081611a70845461206f565b6000601f821160011461250a57819293946000926124ff575b50508160011b916000199060031b1c1916179055565b0135905038806124e9565b601f198216948382526020918281209281905b8882106125565750508360019596971061253c575b505050811b019055565b0135600019600384901b60f8161c19169055388080612532565b8060018496829495870135815501950192019061251d565b9190918054600160401b8110156109f95761258e91600182018155612041565b9290926121b85761213f926124b1565b90808352602080930192838260051b850194846000925b8584106125c6575050505050505090565b9091929394959681810384528735601e198436030181121561019e5783018681019190356001600160401b03811161019e57803603831361019e5787828280600196849695859652848401376000828201840152601f01601f19160101990197969591909101930191906125b5565b80600052600860205260ff604060002054161561037b57600081815260066020526040902060018101549091906001600160a01b03163303612d0e576003820180549060ff8216612cfc576002840191825460801c8015159081612cf2575b50612ca95750805460ff1980821660011783559515612ca9575061010061ff00198254161790556040516001600160801b0342168152827f198a6f9f0ec29b66f4026551a0c3573f1c77f6a203ae1c4014f3abe1d112700660203393a3816000526009602052604060002091825461270b816123a2565b9361271960405195866120e0565b818552602085019060005260206000206000915b838310612c8c5750505050600052600a60205260406000208054612750816123a2565b9161275e60405193846120e0565b818352602083019060005260206000206000915b838310612c6f575050505082519080519061278c836123b9565b92612796836123b9565b9560005b828110612b415750505060005b828110612a1357505050600d549460018601600d55856000526005602052604060002060018282541617905560026020526128496040600020936bffffffffffffffffffffffff60a01b338187541617865560018060a01b03885416600187019182541617905560028501906001600160801b0342166001600160801b03198354161782555460801c6001600160801b0382549181199060801b169116179055565b600160038401918254161790558051906001600160401b0382116109f957600160401b82116109f95760048301548260048501558083106129e7575b5060200160048301600052602060002060005b8381106129d357505050506005018151916001600160401b0383116109f957600160401b83116109f95781548383558084106129aa575b5060200190600052602060002060005b838110612996575050505033600052600360205261290182604060002061234a565b546001600160a01b0316600090815260046020526040902061292490829061234a565b60405190604082018281106001600160401b038211176109f9576040526001825260208201602036823782511561205957527fca57b3b1173b248648c64614c4052398ff4bd93e15808282b4508d8d24dd6d736040518061299133946001600160801b034216908361248a565b0390a2565b6001906020845194019381840155016128df565b8260005283602060002091820191015b8181106129c757506128cf565b600081556001016129ba565b600190602084519401938184015501612898565b6004840160005282602060002091820191015b818110612a075750612885565b600081556001016129fa565b612a1d8183612476565b516020815191012080612a308389612476565b5280600052600c80602052612a4960406000205461206f565b15612a59575b50506001016127a7565b612a638385612476565b51916000526020526040600020908051906001600160401b0382116109f957612a9082610915855461206f565b602090601f8311600114612ad35760019493929160009183612ac8575b5050600019600383901b1c191690841b1790555b9038612a4f565b015190503880612aad565b908360005260206000209160005b601f1985168110612b2957509183916001969594938794601f19811610612b10575b505050811b019055612ac1565b015160001960f88460031b161c19169055388080612b03565b91926020600181928685015181550194019201612ae1565b612b4b8183612476565b516020815191012080612b5e8389612476565b5280600052600b80602052612b7760406000205461206f565b15612b87575b505060010161279a565b612b918385612476565b51916000526020526040600020908051906001600160401b0382116109f957612bbe82610915855461206f565b602090601f8311600114612c015760019493929160009183612bf6575b5050600019600383901b1c191690841b1790555b9038612b7d565b015190503880612bdb565b908360005260206000209160005b601f1985168110612c5757509183916001969594938794601f19811610612c3e575b505050811b019055612bef565b015160001960f88460031b161c19169055388080612c31565b91926020600181928685015181550194019201612c0f565b600160208192612c7e85612101565b815201920192019190612772565b600160208192612c9b85612101565b81520192019201919061272d565b61ffff191661020117905550604051426001600160801b031681523393509091507f04225a7a904e58aacf1cf0441873a3dc7bb4d7ed4fe2efcbdb35e3e836f43e0590602090a3565b9050421138612694565b6040516329af1d3160e21b8152600490fd5b60405163214370e760e21b8152600490fd5b9060405191828154918282526020928383019160005283600020936000905b828210612d555750505061213f925003836120e0565b855484526001958601958895509381019390910190612d3f565b92909260018060a01b039182600092168252600391602090838252604091828220968351808984829b54938481520190865284862092865b8682821061300d57505050612dbe925003896120e0565b81815191012092825b8851811015612fff5783612ddb828b612476565b518082528b8a858b600593848a5260ff938c8b86868b205416600014612f18575050868852808b8560029a8b83522097865190612e17826120a9565b838a5416825260019b848d8c0154169383019384528a0154986001600160801b0398898b1690840152606083019760809a8b1c89528b015416988201981515895260048a01612e6590612d20565b9960a083019a8b5201612e7790612d20565b9060c0015251169116149283612f0d575b5082612eee575b5050612ea6575b5050506001905b01975b97612dc7565b5186835b612eb5575b50612e96565b8151811015612ee95788612ec98284612476565b5114612ed757830183612eaa565b50509a50975050505050509250509190565b612eaf565b5116801591508115612f03575b503880612e8f565b9050421038612efb565b511515925038612e88565b929093958560019a999a998a8652209760c0875191612f36836120a9565b858b541693848452868d8d015416809885015260028c0154996001600160801b038b16908501526080998a1c9a8b60608601528c0154161515809984015260048b01549a8b60a0850152015491015215612fee5716149384612fe4575b505082612fdc575b5081612fc0575b50612fb1575050600190612e9d565b9a509850949650505050505050565b801591508115612fd2575b5038612fa2565b9050421038612fcb565b915038612f9b565b1492508938612f93565b505050505050509190500197612ea0565b505050955050925050508190565b855484526001958601958e955093019201612da7565b600090808252600560205260409060ff82842054166000146130d357825260026020528082208151613054816120a9565b60018060a01b03908183541681528160018401541660208201526130ae60056002850154946001600160801b039687871690850152606084019560801c865260ff60038201541615156080850152610e7160048201612d20565b60c08201525116156130ce5751169081156130c95750421190565b905090565b505090565b509060016020528181209180516130e9816120a9565b60c0600560018060a01b0393848754169485855260018801541660208501526002870154906001600160801b0382169085015260801c9586606085015260ff60038201541615156080850152600481015460a08501520154910152156130c95781156130c95750421190565b60001981146114b1576001019056fe1ca2791ef43e37d008d9364d74b43173de36abb4d22624da8d11d2bb8219a95da26469706673582212206e5a4963134481cc66c1e23abc105bbd5a99ca177a10c415a7899b302a0d9a0764736f6c63430008140033",
  "linkReferences": {},
  "deployedLinkReferences": {}
}